S0270000554152542070726F6772616D6D696E6720776974682041746D6567613132382E7372656318
S113000045C0000058C0000056C0000054C00000A5
S113001052C0000050C000004EC000004CC00000A0
S11300204AC0000048C0000046C0000044C00000B0
S113003042C0000040C000003EC000003CC00000C0
S11300403AC0000038C0000036C0000034C00000D0
S113005032C0000030C000002EC000002CC00000E0
S11300602AC0000028C0000026C0000024C00000F0
S113007022C0000020C000001EC000001CC0000000
S11300801AC0000018C0000016C0000011241FBED2
S1130090CFEFD0E1DEBFCDBF11E0A0E0B1E0E4EDF1
S11300A0F6E000E00BBF02C007900D92A233B10747
S11300B0D9F784D20DC3A4CFCF92DF92EF92FF92EF
S11300C0CF93C82FDB01CA0180569940A109B10919
S11300D0813A984BA140B10588F4A8EFBFEF9A018B
S11300E0AB01D9D27C5D8B409F4FE4E0220F331FDC
S11300F0441F551FEA95D1F7AAD202C027E630E083
S1130100C11104C029B93093900006C0C13021F454
S11301102093990030939800CF91FF90EF90DF9057
S1130120CF900895811108C088E18AB986E0809350
S113013095001BB880E00BC0813051F488E18093B6
S11301409A0086E080939D0010929B0081E0B4CFDA
S11301500895811104C05D9BFECF6CB90895813070
S113016031F480919B0085FFFCCF60939C0008953F
S11301708F929F92AF92BF92EF92FF920F931F9331
S1130180CF93DF93E82E4A015B01F22EC1E0D0E069
S1130190FF20D9F08FEF8F0D8E0102C0000F111FC9
S11301A08A95E2F7012E000C220B330B082119214A
S11301B02A213B2161E0012B022B032B09F460E08F
S11301C0605D8E2DC6DFFA94E3CFDF91CF911F914E
S11301D00F91FF90EF90BF90AF909F908F900895F4
S11301E01F93CF93DF93182FEB016991662319F0C6
S11301F0812FAFDFFACFDF91CF911F9108954F92F6
S11302005F926F927F92AF92BF92CF92DF92EF9202
S1130210FF920F931F93CF93DF93CDB7DEB72A9747
S11302200FB6F894DEBF0FBECDBFB82EA62EBA010E
S1130230A90182E0A81217C0202F8B2D2A960FB691
S1130240F894DEBF0FBECDBFDF91CF911F910F9108
S1130250FF90EF90DF90CF90BF90AF907F906F9022
S11302605F904F9085CF411551056105710549F0A7
S1130270FE0131966F017F014A2C512C612C712CA7
S11302802CC060E38B2D2A960FB6F894DEBF0FBE08
S1130290CDBFDF91CF911F910F91FF90EF90DF9031
S11302A0CF90BF90AF907F906F905F904F9051CF61
S11302B04115510561057105A9F0142FCB01BA014F
S11302C0A3019201C4D1BA01A901A49E1019112459
S11302D0F7011083FFEFEF1AFF0A1E2D1C191017E8
S11302E038F30FC00B3068F4F7011082F3CFFE012E
S11302F0E10FF11D60816A3038F0695C8B2D29DFD4
S113030011501111F4CF02C0605DF8CF2A960FB6D8
S1130310F894DEBF0FBECDBFDF91CF911F910F9137
S1130320FF90EF90DF90CF90BF90AF907F906F9051
S11303305F904F900895AF92BF92CF92DF92EF9269
S1130340FF920F931F93CF93DF9300D000D0CDB7CC
S1130350DEB71989AA88BB887E0184E1E80EF11C06
S1130360F5016081662309F41AC1653209F0FFC002
S113037065019FEFC91AD90AF501918180ED890FB2
S11303808A3008F0AFC000E080ED890F8A3058F45D
S1130390FAE00F9F800D1124082F8FEFC81AD80A96
S11303A0F6019081F1CF983509F4A0C0A0F49334FC
S11303B029F138F4953209F4D6C0923409F4B4C062
S11303C0D9C0933509F4C2C0953509F472C0943488
S11303D009F0D0C037C09436E9F020F4923609F41D
S11303E096C0D9C0953709F451C0983709F470C044
S11303F0ABC0993560F4933409F052C05701F2E070
S1130400AF0EB11CF7016081812FA3DEA8C0943622
S1130410B9F50FEF5701F2E0AF0EB11CF701E08020
S1130420F180F7FE06C0F194E194F1086DE2812FAA
S113043090DE9701FF0C440B550B44C0943409F033
S113044099C00FEF5701F4E0AF0EB11CF701208102
S113045031814281538157FF35C050954095309585
S113046021953F4F4F4F5F4F6DE2812F29833A8390
S11304704B835C836EDE5C814B813A81298122C08F
S1130480953608F440C09537F9F40FEF5701F2E0C0
S1130490AF0EB11CF7012081318140E050E012C061
S11304A0943408F45EC0933509F450C0953531F6A0
S11304B00FEF5701F4E0AF0EB11CF7012081318139
S11304C0428153816AE01CC0983709F03DC00FEFA8
S11304D05701F2E0AF0EB11CF7012081318140E0F9
S11304E050E00DC0983509F084CF0FEF5701F4E0C8
S11304F0AF0EB11CF701208131814281538160E14B
S1130500812F7DDE2CC0923609F045C00FEF5701D4
S1130510F2E0AF0EB11CF701408151810F3F09F4A5
S113052000E160E070E00CC05701F4E0AF0EB11CD4
S1130530F70140815181628173810F3F09F400E129
S1130540202F812F15DE0BC09337A1F45701F2E061
S1130550AF0EB11CF70160817181812F41DE7501FD
S113056009C0953261F465E2812FF3DD03C0812F68
S1130570F0DD65015601FFEFAF1ABF0AF1CE9234E8
S1130580C9F75701F4E0AF0EB11CF7014081518166
S113059062817381D4CF933609F430CFEBCF0F90BF
S11305A00F900F900F90DF91CF911F910F91FF90BB
S11305B0EF90DF90CF90BF90AF90089540E855E260
S11305C060E070E080E0AEDD40E855E260E070E0BD
S11305D081E0A8DD8BEA882E8F929DEC992E9F9264
S11305E024E0A22EAF9232EDB32EBF9200E011E0D0
S11305F01F930F931F929FDE1F924FEEC42ECF9234
S113060056E1D52EDF926EE2E62EEF92C9E1D1E0FB
S1130610DF93CF93FF24F394FF928DDE8F929F920A
S1130620AF92BF921F930F931F9285DE1F92CF92BA
S1130630DF92EF92DF93CF93FF927DDE8DB79EB76B
S11306404C960FB6F8949EBF0FBE8DBFFFCFA1E2AC
S11306501A2EAA1BBB1BFD010DC0AA1FBB1FEE1F38
S1130660FF1FA217B307E407F50720F0A21BB30B83
S1130670E40BF50B661F771F881F991F1A9469F7FF
S113068060957095809590959B01AC01BD01CF015B
S11306900895B7FF04C003D0821B930B089509D0BB
S11306A0A59F900DB49F900DA49F800D911D1124C2
S11306B00895A29FB001B39FC001A39F700D811D37
S11306C01124911DB29F700D811D1124911D089557
S10706D0F894FFCFC8
S11306D44368616E6E656C205A65726F20253464BC
S11306E42C20202532780A0D004368616E6E656CF7
S11306F4204F6E65202534642C2020202532780A6E
S10507040D00E2
S9030000FC
