:100000000C9446000C9465000C9465000C946500FB
:100010000C9465000C9465000C9465000C946500CC
:100020000C9465000C9465000C9465000C946500BC
:100030000C9465000C9465000C9465000C946500AC
:100040000C9465000C9465000C9465000C9465009C
:100050000C9465000C9465000C9465000C9465008C
:100060000C9465000C9465000C9465000C9465007C
:100070000C9465000C9465000C9465000C9465006C
:100080000C9465000C9465000C94650011241FBE4F
:10009000CFEFD0E1DEBFCDBF11E0A0E0B1E0EEEDEB
:1000A000F0E000E00BBF02C007900D92A030B10756
:1000B000D9F711E0A0E0B1E001C01D92A030B10776
:1000C000E1F70E9467000C946D000C9400008FEF24
:0E00D00081BB17BA86B382BBFDCFF894FFCF79
:00000001FF
