:100000000C9446000C9465000C9465000C946500FB
:100010000C9465000C9465000C9465000C946500CC
:100020000C9465000C9465000C9465000C946500BC
:100030000C9465000C9465000C9465000C946500AC
:100040000C9465000C9465000C9465000C9465009C
:100050000C9465000C9465000C9465000C9465008C
:100060000C9465000C9465000C9465000C9465007C
:100070000C9465000C9465000C9465000C9465006C
:100080000C9465000C9465000C94650011241FBE4F
:10009000CFEFD0E1DEBFCDBF11E0A0E0B1E0E2E400
:1000A000F1E000E00BBF02C007900D92A030B10755
:1000B000D9F711E0A0E0B1E001C01D92A030B10776
:1000C000E1F70E9467000C949F000C9400008FEFF2
:1000D0008093610082B981BB81BB84BB87BB8ABB33
:1000E000E2E6F0E0808383B982BB85BB88BB8BBB33
:1000F0002FEF31EE44E0215030404040E1F700C0A6
:100100000000108213B812BA15BA18BA1BBA2FEF32
:1001100031EE44E0215030404040E1F700C00000A3
:10012000E1CF009759F02FEF33ED40E321503040FD
:100130004040E1F700C000000197A9F70895F89446
:02014000FFCFEF
:00000001FF
