:100000000C9446000C9465000C9465000C946500FB
:100010000C9465000C9465000C9465000C946500CC
:100020000C9465000C9465000C9465000C946500BC
:100030000C9465000C9465000C9465000C946500AC
:100040000C9465000C9465000C9465000C9465009C
:100050000C9465000C9465000C9465000C9465008C
:100060000C9465000C9465000C9465000C9465007C
:100070000C9465000C9465000C9465000C9465006C
:100080000C9465000C9465000C94650011241FBE4F
:10009000CFEFD0E1DEBFCDBF11E0A0E0B1E0EAE7F5
:1000A000FBE000E00BBF02C007900D92A233B10746
:1000B000D9F711E0A2E3B1E001C01D92A233B1076C
:1000C000E1F70E9467000C94BB050C94000080E0EF
:1000D00040E855E260E070E00E942B0181E040E8DA
:1000E00055E260E070E00E942B018DB79EB7079744
:1000F0000FB6F8949EBF0FBE8DBFEDB7FEB7319619
:10010000ADB7BEB711961C92C0E0D1E0D283C183D7
:1001100002ED14E0148303830F2EFDECEF2EFBEAB7
:10012000FF2EF02DF682E5820E949502EDB7FEB714
:10013000319677247394ADB7BEB711967C920F2E8B
:10014000F9E1CF2EF1E0DF2EF02DD282C1820F2E09
:10015000FEE2AF2EF6E1BF2EF02DB482A3820F2E69
:10016000FFEE8F2E9924F02D968285820E949502B3
:10017000EDB7FEB73196ADB7BEB711961C92D283DC
:10018000C18314830383F682E5820E949502EDB752
:10019000FEB73196ADB7BEB711967C92D282C182BE
:1001A000B482A382968285820E9495028DB79EB703
:1001B00007960FB6F8949EBF0FBE8DBFFFCFCF92AC
:1001C000DF92EF92FF92CF93C82F6A017B01DB0190
:1001D000CA0180569940A040B040813A28EB92076E
:1001E00021E0A20720E0B20708F5CB01BA0128EF11
:1001F0003FEF4FEF5FEF0E947A0560507C4D8B40E0
:100200009F4FCC0CDD1CEE1CFF1CCC0CDD1CEE1C2F
:10021000FF1CA7019601220F331F441F551F220FF9
:10022000331F441F551F0E94990502C027E630E086
:10023000CC2319F0C13049F404C029B9309390009F
:1002400004C02093990030939800CF91FF90EF90D5
:10025000DF90CF900895882319F08130B1F40AC05F
:1002600088E18AB986E0809395001BB880E00E94FF
:10027000DF00089588E180939A0086E080939D00D6
:1002800010929B0081E00E94DF000895882319F0FE
:10029000813069F404C05F9BFECF8CB10895EBE917
:1002A000F0E080818823ECF780919C00089580E045
:1002B0000895882319F0813061F404C05D9BFECF5E
:1002C0006CB90895EBE9F0E0808185FFFDCF609384
:1002D0009C0008951F93CF93DF93182FEB01688143
:1002E000662339F02196812F0E9459016991662376
:1002F000D1F7DF91CF911F9108950F931F93CF9363
:10030000DF93082FEB01802F0E944601182F802FCA
:10031000612F0E9459011D3011F01A3031F41882FA
:10032000DF91CF911F910F9108951993ECCF2F92E8
:100330003F924F925F927F928F929F92AF92BF9225
:10034000CF92DF92EF92FF920F931F93CF93DF93A1
:10035000CDB7DEB72A970FB6F894DEBF0FBECDBF7C
:10036000C82ED62E49015A0122E0621739F5002322
:1003700009F476C0EE24FF24E39411E0DD24802FFD
:1003800090E00197F70102C0EE0FFF1F8A95E2F798
:10039000CF01AA2797FDA095BA2F88219921AA21DC
:1003A000BB21612F0097A105B10509F46D2D605D9A
:1003B0008C2D0E945901015011F752C081149104F3
:1003C000A104B10419F0002381F44AC0002309F408
:1003D00047C010E08C2D60E30E9459011F5F101789
:1003E00009F43EC01A30B1F73BC07E010894E11C0D
:1003F000F11C10E0262E332444245524811491044A
:10040000A104B10491F0782CC501B401A2019101BD
:100410000E949905822E932EA42EB52ED29E202DB9
:100420001124721AF701708207C00B3018F01123E3
:1004300049F416C0F70110821F5F0894E11CF11CFB
:100440001017E1F6FE01E10FF11D60816A3010F036
:10045000695C01C0605D8C2D0E945901115091F7BB
:100460002A960FB6F894DEBF0FBECDBFDF91CF91B5
:100470001F910F91FF90EF90DF90CF90BF90AF90C2
:100480009F908F907F905F904F903F902F90089516
:100490008F929F92AF92BF92EF92FF920F931F9312
:1004A000CF93DF93E82E4A015B01CB01BA010E9492
:1004B0005D04F62E172FD82FC92F8E2D6AE02F2D11
:1004C000312F4D2F5C2F0FEF0E9497018E2D6EE282
:1004D0000E9459016F2D712F8D2F9C2F0E9489042E
:1004E0009B01AC01C501B4010E94F80320E034E295
:1004F00044E759E40E941705462F572F682F792F9C
:10050000CB01BA010E945D049B01AC018E2D6AE013
:100510000E949701DF91CF911F910F91FF90EF9073
:10052000BF90AF909F908F9008954F925F927F926F
:100530008F929F92AF92BF92CF92DF92EF92FF92F3
:100540000F931F93CF93DF93CDB7DEB79A88EB89D4
:10055000FC890F2EF5E1CF2EDD24F02DCC0EDD1E13
:100560006081662309F434C18F0188248A9477243A
:10057000653209F021C158010894A11CB11CF80191
:100580008181982F90539A3080F43296072D000F76
:10059000902F990F990F090F8053080F5F018191D8
:1005A000982F90539A3098F301C0082D883509F49C
:1005B000ADC08935C0F4843409F454C0853448F49E
:1005C000823409F4C8C0833428F5853209F0F8C0B4
:1005D000EEC0833509F4E0C0853509F475C0863472
:1005E00009F0EEC0CCC0863609F4C9C0873640F4A5
:1005F000833681F08436C1F0823609F0E1C097C0BD
:10060000853709F450C0883709F46FC0833709F083
:10061000D7C0C2C086010E5F1F4F892DF6016081D1
:100620000E9459016801CCC0EE24FF246894E1F8CF
:10063000EC0CFD1CF601C080D180DD2044F4D09488
:10064000C194D108D394892D6DE20E94590196017D
:10065000442737FD4095542F892D6AE00E94970169
:100660006701AEC044245524689442F84C0C5D1CCC
:10067000F601C080D180E280F380FF2064F4F09422
:10068000E094D094C094C11CD11CE11CF11C892DB4
:100690006DE20E945901892D6AE0A70196010E942E
:1006A000970162018DC0EE24FF246894E1F8EC0C00
:1006B000FD1CF6012081318140E050E0892D6AE087
:1006C0000E94970167017CC0EE24FF246894E2F841
:1006D000EC0CFD1CF6012081318142815381892D72
:1006E0006AE00E94970167016BC0EE24FF246894C2
:1006F000E1F8EC0CFD1CF6012081318140E050E076
:10070000892D60E10E94970167015AC0EE24FF2401
:100710006894E2F8EC0CFD1CF601208131814281E5
:100720005381892D60E10E949701670149C0EE2441
:10073000FF246894E1F8EC0CFD1CF6012081318166
:100740000F3F09F400E140E050E0892D62E00E9493
:100750009701670135C0EE24FF246894E2F8EC0CA1
:10076000FD1CF60120813181428153810F3F09F444
:1007700000E1892D62E00E949701670121C0860196
:100780000C5F1F4FF6014081518162817381892D79
:100790000E944802680114C0F60182E090E0C80E91
:1007A000D91E60817181892D0E946A0109C0892D3D
:1007B00065E20E94590104C0892D0E945901580127
:1007C00085010F5F1F4FF5016181662309F0D0CECF
:1007D000DF91CF911F910F91FF90EF90DF90CF901D
:1007E000BF90AF909F908F907F905F904F900895B3
:1007F0005058BB27AA270ED0E0C0D1D030F0D6D0B9
:1008000020F031F49F3F11F41EF4C6C00EF4E095C1
:10081000E7FBBCC0E92FE2D080F3BA176207730789
:100820008407950718F071F49EF5FAC00EF4E09570
:100830000B2EBA2FA02D0B01B90190010C01CA019A
:10084000A0011124FF27591B99F0593F50F4503E45
:1008500068F11A16F040A22F232F342F4427585F37
:10086000F3CF469537952795A795F0405395C9F74F
:100870007EF41F16BA0B620B730B840BBAF0915007
:10088000A1F0FF0FBB1F661F771F881FC2F70EC0A6
:10089000BA0F621F731F841F48F487957795679579
:1008A000B795F7959E3F08F0B3CF9395880F08F062
:1008B0009927EE0F97958795089598D088F09F57C0
:1008C00090F0B92F9927B751A0F0D1F0660F771F9C
:1008D000881F991F1AF0BA95C9F712C0B13081F07C
:1008E0009FD0B1E008959CC0672F782F8827B85F0C
:1008F00039F0B93FCCF3869577956795B395D9F7DD
:100900003EF490958095709561957F4F8F4F9F4FE6
:100910000895E89409C097FB3EF4909580957095F2
:1009200061957F4F8F4F9F4F9923A9F0F92F96E93B
:10093000BB279395F695879577956795B795F111B0
:10094000F8CFFAF4BB0F11F460FF1BC06F5F7F4F4D
:100950008F4F9F4F16C0882311F096E911C077235F
:1009600021F09EE8872F762F05C0662371F096E868
:10097000862F70E060E02AF09A95660F771F881F37
:10098000DAF7880F9695879597F9089597F99F67F5
:1009900080E870E060E008959FEF80EC0895002407
:1009A0000A941616170618060906089500240A94D4
:1009B00012161306140605060895092E0394000C5A
:1009C00011F4882352F0BB0F40F4BF2B11F460FFE9
:1009D00004C06F5F7F4F8F4F9F4F089557FD905812
:1009E000440F551F59F05F3F71F04795880F97FBF3
:1009F000991F61F09F3F79F08795089512161306AD
:100A00001406551FF2CF4695F1DF08C016161706DB
:100A10001806991FF1CF8695710561050894089510
:100A2000E894BB2766277727CB0197F908950BD069
:100A3000C4CFB5DF28F0BADF18F0952309F0A6CFB0
:100A4000ABCF1124EECFCADFA0F3959FD1F3950F62
:100A500050E0551F629FF001729FBB27F00DB11D42
:100A6000639FAA27F00DB11DAA1F649F6627B00DD2
:100A7000A11D661F829F2227B00DA11D621F739FBB
:100A8000B00DA11D621F839FA00D611D221F749FC9
:100A90003327A00D611D231F849F600D211D822F10
:100AA000762F6A2F11249F5750408AF0E1F0882357
:100AB0004AF0EE0FFF1FBB1F661F771F881F915064
:100AC0005040A9F79E3F510570F060CFAACF5F3F1D
:100AD000ECF3983EDCF3869577956795B795F79597
:100AE000E7959F5FC1F7FE2B880F911D969587951F
:100AF00097F90895629FD001739FF001829FE00DE6
:100B0000F11D649FE00DF11D929FF00D839FF00D8C
:100B1000749FF00D659FF00D9927729FB00DE11D38
:100B2000F91F639FB00DE11DF91FBD01CF01112415
:100B30000895A1E21A2EAA1BBB1BFD010DC0AA1F1E
:100B4000BB1FEE1FFF1FA217B307E407F50720F036
:100B5000A21BB30BE40BF50B661F771F881F991FB1
:100B60001A9469F760957095809590959B01AC01FA
:0A0B7000BD01CF010895F894FFCFF6
:100B7A004368616E6E656C205A65726F2025346415
:100B8A002C20202532780A0D004368616E6E656C50
:100B9A00204F6E65202534642C2020202532780AC7
:020BAA000D003C
:00000001FF
