:100000000C9446000C9465000C9465000C946500FB
:100010000C9465000C9465000C9465000C946500CC
:100020000C9465000C9465000C9465000C946500BC
:100030000C9465000C9465000C9465000C946500AC
:100040000C9465000C9465000C9465000C9465009C
:100050000C9465000C9465000C9465000C9465008C
:100060000C9465000C9465000C9465000C9465007C
:100070000C9465000C9465000C9465000C9465006C
:100080000C9465000C9465000C94650011241FBE4F
:10009000CFEFD0E1DEBFCDBF11E0A0E0B1E0EAE3F9
:1000A000F8E000E00BBF02C007900D92A832B10744
:1000B000D9F711E0A8E2B1E001C01D92AD32B1075D
:1000C000E1F70E949D030C941B040C940000009720
:1000D00059F02FEF33ED40E3215030404040E1F73D
:1000E00000C000000197A9F708951092710086E4FE
:1000F0008093700084E080937400089584EA809374
:100100007400E4E7F0E080818823ECF7089584E947
:10011000809374008FE891E00197F1F700C0000030
:1001200008958093730084E880937400E4E7F0E01E
:1001300080818823ECF708958295880F880F807C52
:10014000846880937400E4E7F0E080818823ECF712
:10015000809173000895982F84FF02C0AC9A01C06B
:10016000AC9895FF02C0AD9A01C0AD9896FF02C051
:10017000AE9A01C0AE98882314F4AF9A0895AF9850
:100180000895A7989598969AECE2F1E0979885E300
:100190008A95F1F70000979A95E39A95F1F7000098
:1001A00083B39081943051F4979895E39A95F1F741
:1001B0000000979A95E39A95F1F70000882334F3AD
:1001C000A79A089595989698979A85E38A95F1F756
:1001D000000097980895959A9698979A85E38A953E
:1001E000F1F7000097980895CF93C82F0E94C1009F
:1001F00080912C01883021F4C5BB0E94E2000EC022
:10020000843061F48C2F0E94AB000E94E2008C2F9E
:100210008295807F0E94AB000E94E200CF910895FA
:10022000809129018F5F809329011092280190917C
:100230002A01981718F481E08093290180912901FF
:10024000E0E0F1E0E80FF11D80810E94F4000895E4
:1002500090912A01981758F0109228018093290153
:10026000E0E0F1E0E80FF11D80810E94F4000895C4
:1002700081E00E94F40081E00E94280108959FEF30
:1002800094BB91BB80932C0140932B0160932A0176
:10029000633040F04F70842F8057809303014053A8
:1002A000409304018FEF91EEA4E081509040A04074
:1002B000E1F700C0000080912C01883021F488E330
:1002C0000E94F40034C0843091F580E30E94AB00BA
:1002D0000E94E2008FEF91EEA4E081509040A04098
:1002E000E1F700C0000080E30E94AB000E94E20042
:1002F000AFE1B3E01197F1F700C0000080E30E9486
:10030000AB000E94E2008FE193E00197F1F700C09B
:10031000000080E20E94AB000E94E200AFE1B3E087
:100320001197F1F700C0000088E20E94F4008EE00F
:100330000E94F4000E9438010895CF93C82F909135
:100340002B0180912801891718F4CA3029F422C0A2
:100350000E941001CA3001F10E94C10080912C015D
:10036000883021F4C5BB0E94EB000EC0843061F4DC
:100370008C2F0E94AB000E94EB008C2F8295807F17
:100380000E94AB000E94EB00809128018F5F809358
:10039000280102C00E941001CF9108951F93CF93AE
:1003A000DF93CDB7DEB72A970FB6F894DEBF0FBE46
:1003B000CDBFDC01CB010097A105B10519F04423A5
:1003C00069F436C04423A1F1FE01319610E0119288
:1003D0001F5F141701F11A30D1F71DC0FE013196CD
:1003E00010E00097A105B10561F0282F2F70208340
:1003F000689413F8B695A795979587951694D1F7B5
:1004000003C04B3030F410821F5F3196141749F748
:1004100002C0112369F0FE01E10FF11D80818A30D5
:1004200010F0895C01C0805D0E949D01115099F718
:100430002A960FB6F894DEBF0FBECDBFDF91CF91E5
:100440001F910895AF92BF92CF92DF92EF92FF92E9
:100450000F931F93CF93DF93CDB7DEB70F2EFDE041
:10046000CF2EDD24F02DCC0EDD1ED601ED91FD91B9
:100470006D018081882309F4ADC08F01BB24BA943B
:10048000AA24853209F099C078010894E11CF11C76
:10049000F8018181982F90539A3080F432964A2D3A
:1004A000440F942F990F990F490F8053480F7F01E4
:1004B0008191982F90539A3098F301C04B2D883535
:1004C00009F457C08935B0F48434B9F1853448F45F
:1004D000823409F45FC0833410F5853209F070C0AE
:1004E00068C0833509F460C0853589F1863409F028
:1004F00067C055C0863609F452C0873640F483364B
:1005000071F08436A9F0823609F05AC03EC08537B2
:10051000C9F0883709F1833709F052C045C0860118
:100520000E5F1F4FD6018C910E949D01680148C04B
:10053000E2E0F0E0CE0EDF1E43C084E090E0C80EA3
:10054000D91E3EC0A2E0B0E0CA0EDB1E39C0E4E016
:10055000F0E0CE0EDF1E34C086010E5F1F4FD601C5
:100560008D919C91BC0180E090E00E94CE016801D9
:1005700027C086010C5F1F4FF60160817181828167
:1005800093810E94CE0168011BC082E090E0C80EFA
:10059000D91E16C0A4E0B0E0CA0EDB1E11C0E4E014
:1005A000F0E0CE0EDF1E0CC082E090E0C80ED91E37
:1005B00007C085E20E949D0103C00E949D01780151
:1005C00087010F5F1F4FD70111968C9111978823D8
:1005D00009F057CFDF91CF911F910F91FF90EF90CE
:1005E000DF90CF90BF90AF9008950E9475000E9459
:1005F0007E0080ED0E94910087E00E94910080E0E3
:100600000E9491000E94870008951F93CF93DF936B
:10061000C82FD62F142F0E947E0080ED0E949100DB
:1006200080E00E949100812F0E9491008D2F0E94F6
:1006300091008C2F0E9491000E948700DF91CF9142
:100640001F9108951F93CF93DF93182FD62FC42F98
:100650000E947E0080ED0E94910084E00E94910043
:10066000812F0E9491008D2F0E9491008C2F0E945B
:1006700091000E948700DF91CF911F910895EF9222
:10068000FF920F931F93CF93DF937C018B01EA01BD
:100690000E947E0080ED0E94910080E00E94910007
:1006A0000E9487000E947E0081ED0E94910081E0FF
:1006B0000E949C00888381E00E949C00F801808356
:1006C00080E00E949C00F70180830E948700DF91F8
:1006D000CF911F910F91FF90EF900895EF92FF92AD
:1006E0000F931F93CF93DF93EC018B017A010E944C
:1006F0007E0080ED0E94910084E00E9491000E94A3
:1007000087000E947E0081ED0E94910081E00E949E
:100710009C00888381E00E949C00F801808380E037
:100720000E949C00F70180830E948700DF91CF9197
:100730001F910F91FF90EF900895CF93DF9300D01A
:1007400000D000D0CDB7DEB784E062E040E10E9487
:100750003F010E94F50280E160E440E00E94050351
:1007600081E061E045E10E94220305E011E00F2EE7
:10077000F6E1EF2EF1E0FF2EF02D81E00E9428013E
:10078000CE010396BE016E5F7F4FAE014F5F5F4F9C
:100790000E943F038DB79EB708970FB6F8949EBF8F
:1007A0000FBE8DBFEDB7FEB73196ADB7BEB712968F
:1007B0001C930E9311978B81828313828A81848389
:1007C00015828981868317820E9422028DB79EB787
:1007D00008960FB6F8949EBF0FBE8DBFCE0104964B
:1007E000BE016B5F7F4FAE014A5F5F4F0E946E0399
:1007F000ADB7BEB718970FB6F894BEBF0FBEADBF6A
:10080000EDB7FEB731961296FC92EE9211978C815D
:10081000828313828D81848315828E8186831782E1
:100820000E9422028DB79EB708960FB6F8949EBF1D
:0A0830000FBE8DBFA2CFF894FFCFDA
:10083A008080C090D074696D653A2532783A253245
:10084A00783A253278000A446174653A2532782F5D
:08085A002532782F25327800C9
:00000001FF
