:100000000C9446000C9465000C9465000C946500FB
:100010000C9465000C9465000C9465000C946500CC
:100020000C9465000C9465000C9465000C946500BC
:100030000C9465000C9465000C9465000C946500AC
:100040000C9465000C9465000C9465000C9465009C
:100050000C9465000C9465000C9465000C9465008C
:100060000C9465000C9465000C9465000C9465007C
:100070000C9465000C9465000C9465000C9465006C
:100080000C9465000C9465000C94650011241FBE4F
:10009000CFEFD0E1DEBFCDBF11E0A0E0B1E0E2E8FC
:1000A000F9E000E00BBF02C007900D92AA31B10742
:1000B000D9F711E0AAE1B1E001C01D92AF31B1075B
:1000C000E1F70E9473040C94BF040C94000081E8D3
:1000D00086B917B8089587B9369A349BFECF84B194
:1000E00095B10895982F84FF02C0949A01C0949806
:1000F00095FF02C0959A01C0959896FF02C0969A06
:1001000001C09698882314F4979A089597980895B3
:100110008F989098919AEEE1F1E0929885E38A9514
:10012000F1F70000929A95E39A95F1F7000080B3F9
:100130009081943051F4929895E39A95F1F70000EC
:10014000929A95E39A95F1F70000882334F38F9AF9
:10015000089590989198929A85E38A95F1F7000016
:1001600092980895909A9198929A85E38A95F1F7DA
:10017000000092980895CF93C82F0E948800809124
:100180001E01883021F4C2BB0E94A9000EC0843039
:1001900061F48C2F0E9472000E94A9008C2F82951E
:1001A000807F0E9472000E94A900CF9108959091D3
:1001B0001C01981780F090911D01691760F46093FD
:1001C0001A0180931B01E0E0F1E0E80FF11D80814E
:1001D000860F0E94BB00089580911B018F5F809362
:1001E0001B0110921A0190911C01981718F481E0DC
:1001F00080931B0180911B01E0E0F1E0E80FF11D0D
:1002000080810E94BB00089590911C01981758F0BE
:1002100010921A0180931B01E0E0F1E0E80FF11D5C
:1002200080810E94BB00089581E00E94BB0081E0B4
:100230000E94040108959FEF91BB91BB80931E0122
:1002400040931D0160931C01633040F04F70842F78
:100250008057809303014053409304018FEF91EE48
:10026000A4E081509040A040E1F700C000008091E0
:100270001E01883021F488E30E94BB0034C0843022
:1002800091F580E30E9472000E94A9008FEF91EE29
:10029000A4E081509040A040E1F700C0000080E35E
:1002A0000E9472000E94A900AFE1B3E01197F1F73C
:1002B00000C0000080E30E9472000E94A9008FE14C
:1002C00093E00197F1F700C0000080E20E94720005
:1002D0000E94A900AFE1B3E01197F1F700C0000060
:1002E00088E20E94BB008EE00E94BB000E941401C5
:1002F0000895CF93C82F90911D0180911A018917FD
:1003000018F4CA3029F422C00E94EC00CA3001F16E
:100310000E94880080911E01883021F4C2BB0E9497
:10032000B2000EC0843061F48C2F0E9472000E94D3
:10033000B2008C2F8295807F0E9472000E94B200D2
:1003400080911A018F5F80931A0102C00E94EC0015
:10035000CF910895CF93DF93EC018881882331F00A
:1003600021960E94790189918823D9F7DF91CF9155
:100370000895AF92BF92CF92DF92EF92FF920F93C8
:100380001F93CF93DF93B82E6B0180911C018B15C7
:1003900010F4BB24B3948CE00E94BB00D6018C9176
:1003A0008823D1F1D0E00DE111E0AA248B2D0E9429
:1003B0000401F80180818823F9F0ED2EFF24F60175
:1003C000EE0DFF1D80818823A9F1CA2D7F010E94B7
:1003D0007901CF5FD8018C91C81770F4F701EC0F49
:1003E000F11D8081882399F780E20E947901CF5F17
:1003F000F8018081C817C0F38FEF93ECA9E081501A
:100400009040A040E1F700C00000DF5FF601ED0F73
:10041000F11D8081882351F68EE00E94BB00DF91A0
:10042000CF911F910F91FF90EF90DF90CF90BF90F1
:10043000AF900895CA2DD8CF8F929F92AF92BF925E
:10044000EF92FF920F931F93CF93DF93CDB7DEB759
:100450002A970FB6F894DEBF0FBECDBFDC01CB01EB
:10046000042F0097A105B10519F0442371F443C08E
:10047000442309F440C0FE01319610E011921F5F41
:10048000101781F11A30D1F72DC07E010894E11CBC
:10049000F11C10E00F2EFAE08F2EF0E09F2EF0E01E
:1004A000AF2EF0E0BF2EF02D0097A105B10569F049
:1004B000BC01CD01A50194010E949D04F701608358
:1004C000822F932FA42FB52F04C00B3048F4F701CF
:1004D00010821F5F0894E11CF11C101729F702C05D
:1004E000112349F0FE01E10FF11D8081805D0E9422
:1004F00079011150B9F72A960FB6F894DEBF0FBEF6
:10050000CDBFDF91CF911F910F91FF90EF90BF90E2
:10051000AF909F908F9008951F93CF93DF93CDB7A7
:10052000DEB72A970FB6F894DEBF0FBECDBFDC0151
:10053000CB010097A105B10519F0442369F436C039
:100540004423A1F1FE01319610E011921F5F1417B0
:1005500001F11A30D1F71DC0FE01319610E000976D
:10056000A105B10561F0282F2F702083689413F83E
:10057000B695A795979587951694D1F703C04B30FC
:1005800030F410821F5F3196141749F702C011230F
:1005900069F0FE01E10FF11D80818A3010F0895C65
:1005A00001C0805D0E947901115099F72A960FB61B
:1005B000F894DEBF0FBECDBFDF91CF911F9108959C
:1005C000BF92CF92DF92EF92FF920F931F93CF9340
:1005D000DF936B017C01C42F442319F101E010E08B
:1005E000D1E0BB244C2F50E041505040C80102C024
:1005F000880F991F4A95E2F7AC01662757FD609571
:10060000762F4C215D216E217F218D2F41155105C3
:100610006105710509F48B2D805D0E947901C1503F
:1006200009F7DF91CF911F910F91FF90EF90DF902D
:10063000CF90BF9008955F926F927F928F929F921A
:10064000AF92BF92CF92DF92EF92FF920F931F93E0
:10065000CF93DF93CDB7DEB70F2EF2E1CF2EDD249F
:10066000F02DCC0EDD1ED601ED91FD916D01808146
:10067000882309F428C18F015524689454F89924DB
:100680009A948824853209F011C158010894A11C5C
:10069000B11CF8018181982F90539A3080F43296E2
:1006A000182D110F912F990F990F190F8053180FB3
:1006B0005F018191982F90539A3098F301C0192DC2
:1006C000883509F4A8C08935C0F4843409F451C0D0
:1006D000853448F4823409F4C2C0833428F5853265
:1006E00009F0E7C0DFC0833509F4D2C0853509F4CD
:1006F00071C0863409F0DDC0C6C0863609F4C3C0B7
:10070000873640F4833681F08436B9F0823609F0BA
:10071000D0C091C0853709F44CC0883709F46AC04D
:10072000833709F0C6C0B4C086010E5F1F4FD601E3
:100730008C910E9479016801BCC0EE24FF2468946A
:10074000E1F8EC0CFD1CF601C080D180DD203CF40A
:10075000D094C194D108D3948DE20E947901B6015E
:10076000882777FD8095982F412F0E941C026701F2
:10077000A0C066247724689462F86C0C7D1CD601B6
:10078000CD90DD90ED90FC901397FF205CF4F094F9
:10079000E094D094C094C11CD11CE11CF11C8DE2EA
:1007A0000E947901C701B601412F0E941C0263011A
:1007B00080C0EE24FF246894E1F8EC0CFD1CF601E7
:1007C00080819181BC0180E090E0412F0E941C0259
:1007D00067016FC0EE24FF246894E2F8EC0CFD1C66
:1007E000D6016D917D918D919C91412F0E941C02AB
:1007F00067015FC0EE24FF246894E1F8EC0CFD1C57
:10080000F60180819181BC0180E090E0412F0E943F
:100810008C0267014EC0EE24FF246894E2F8EC0CD1
:10082000FD1CD6016D917D918D919C91412F0E946F
:100830008C0267013EC0EE24FF246894E1F8EC0CC2
:10084000FD1CF601808191811F3F09F4152DBC012B
:1008500080E090E0412F0E94E00267012AC0EE2470
:10086000FF246894E2F8EC0CFD1CD6016D917D919B
:100870008D919C9113971F3F09F4152D412F0E94D4
:10088000E002670116C0E4E0F0E0CE0EDF1E11C00A
:10089000F60182E090E0C80ED91E808191810E940D
:1008A000AA0107C085E20E94790103C00E94790174
:1008B000580185010F5F1F4FD50111968C9111973B
:1008C000882309F0DFCEDF91CF911F910F91FF9028
:1008D000EF90DF90CF90BF90AF909F908F907F90E0
:1008E0006F905F90089584E062E040E10E941B01F8
:1008F0000E94670000D085E091E0EDB7FEB79283DB
:1009000081830E941B030F900F9006E111E080E0AD
:100910000E946B00EC0182E00E94040100D000D034
:10092000EDB7FEB712830183D483C3830E941B03F8
:100930000F900F900F900F90EACFA1E21A2EAA1BF2
:10094000BB1BFD010DC0AA1FBB1FEE1FFF1FA2177F
:10095000B307E407F50720F0A21BB30BE40BF50B7C
:10096000661F771F881F991F1A9469F76095709505
:10097000809590959B01AC01BD01CF010895F8943D
:02098000FFCFA7
:100982008080C090D0414443204368616E6E656CA4
:0A099200207A65726F0025750000E1
:00000001FF
