:100000005AC0000075C0000073C0000071C000003D
:100010006FC000006DC000006BC0000069C0000030
:1000200067C0000065C0000063C0000061C0000040
:100030005FC000005DC000005BC0000059C0000050
:1000400057C0000055C0000053C0000051C0000060
:100050004FC000004DC000004BC0000049C0000070
:1000600047C0000045C0000043C0000041C0000080
:100070003FC000003DC000003BC0000039C0000090
:1000800037C0000035C0000033C000009D00B8003C
:10009000D300EE000901240141016E018901A40190
:1000A000BF01DA01F50112023E024002420244029F
:1000B000460248024A0211241FBECFEFD0E1DEBF44
:1000C000CDBF11E0A0E0B1E0E0EAF8E000E00BBF56
:1000D00002C007900D92A432B107D9F721E0A4E243
:1000E000B1E001C01D92A433B207E1F792D3D6C3A9
:1000F00087CF009731F025E02A95F1F700000197AE
:10010000F8CF0895009741F0EFE9FFE03197F1F75C
:1001100000C000000197F6CF0895982F9770E82F40
:10012000E695E695E6954E2F50E04730510508F0EC
:10013000C4C0FA01EA5BFF4FA8C34AB3662359F073
:1001400021E030E0B90102C0660F771F9A95E2F70F
:10015000CB01842B0BC021E030E0B90102C0660F57
:10016000771F9A95E2F7CB01809584238ABB089587
:1001700047B3662359F021E030E0B90102C0660FB1
:10018000771F9A95E2F7CB01842B0BC021E030E07A
:10019000B90102C0660F771F9A95E2F7CB018095EF
:1001A000842387BB089544B3662359F021E030E0EF
:1001B000B90102C0660F771F9A95E2F7CB01842B35
:1001C0000BC021E030E0B90102C0660F771F9A959D
:1001D000E2F7CB018095842384BB089541B3662365
:1001E00059F021E030E0B90102C0660F771F9A95FF
:1001F000E2F7CB01842B0BC021E030E0B90102C053
:10020000660F771F9A95E2F7CB018095842381BB17
:10021000089542B1662359F021E030E0B90102C0EF
:10022000660F771F9A95E2F7CB01842B0BC021E074
:1002300030E0B90102C0660F771F9A95E2F7CB0153
:100240008095842382B9089540916100662359F016
:1002500021E030E0B90102C0660F771F9A95E2F7FE
:10026000CB01842B0BC021E030E0B90102C0660F46
:10027000771F9A95E2F7CB018095842380936100E4
:10028000089540916400662359F021E030E0B901FF
:1002900002C0660F771F9A95E2F7CB01842B0BC043
:1002A00021E030E0B90102C0660F771F9A95E2F7AE
:1002B000CB0180958423809364000895982F9770D4
:1002C000E82FE695E695E6954E2F50E0473051052C
:1002D00008F0C4C0FA01E35BFF4FD7C24BB36623FB
:1002E00059F021E030E0B90102C0660F771F9A95FE
:1002F000E2F7CB01842B0BC021E030E0B90102C052
:10030000660F771F9A95E2F7CB01809584238BBB0C
:10031000089548B3662359F021E030E0B90102C0E6
:10032000660F771F9A95E2F7CB01842B0BC021E073
:1003300030E0B90102C0660F771F9A95E2F7CB0152
:100340008095842388BB089545B3662359F021E046
:1003500030E0B90102C0660F771F9A95E2F7CB0132
:10036000842B0BC021E030E0B90102C0660F771F7B
:100370009A95E2F7CB018095842385BB089542B31B
:10038000662359F021E030E0B90102C0660F771F03
:100390009A95E2F7CB01842B0BC021E030E0B90144
:1003A00002C0660F771F9A95E2F7CB0180958423F0
:1003B00082BB089543B1662359F021E030E0B901D2
:1003C00002C0660F771F9A95E2F7CB01842B0BC012
:1003D00021E030E0B90102C0660F771F9A95E2F77D
:1003E000CB018095842383B90895409162006623F0
:1003F00059F021E030E0B90102C0660F771F9A95ED
:10040000E2F7CB01842B0BC021E030E0B90102C040
:10041000660F771F9A95E2F7CB018095842380932E
:100420006200089540916500662359F021E030E0B4
:10043000B90102C0660F771F9A95E2F7CB01842BB2
:100440000BC021E030E0B90102C0660F771F9A951A
:10045000E2F7CB0180958423809365000895282FCF
:100460002770E82FE695E695E6958E2F90E0873089
:100470009105D0F4FC01EC5AFF4F07C289B30CC0C0
:1004800086B30AC083B308C080B306C081B104C07C
:1004900080B102C08091630090E002C0959587957D
:1004A0002A95E2F78170089580E008950F931F93D5
:1004B000CF93C82F84FB662760F904E211E0F801AE
:1004C0008285FCDEC5FB662760F9F8018385F6DED0
:1004D000C6FB662760F9F8018485F0DE6C2F661F85
:1004E0006627661FF8018585CF911F910F91E6CE93
:1004F000CF93DF93C4E2D1E060E08B81DFDE60E088
:100500008C81DCDE61E08D81D9DE8AE090E0F1DD76
:1005100060E08D81DF91CF91D1CE0F931F93CF9368
:10052000C82F682F617004E211E0F8018681C6DEF1
:10053000C1FB662760F9F8018781C0DEC2FB662730
:1005400060F9F8018085BADEC3FB662760F9F8011F
:100550008185CF911F910F91B1CECF93DF93C4E2EC
:10056000D1E061E08B81AADE60E08C81A7DE61E0F2
:100570008D81A4DE8AE090E0BCDD60E08D81DF91BA
:10058000CF919CCECF93809128018F3F09F437C043
:1005900060E080913101C1DD60E0809127018EDE55
:1005A00061E0809128018ADE60E08091290186DE89
:1005B0008AE090E09EDD61E0809129017FDE8AE0A3
:1005C00090E097DD809131014ADFC82F80912601AC
:1005D000843071F460E08091290170DE8AE090E05F
:1005E00088DD61E08091290169DE8AE090E081DDAB
:1005F000C111DACF61E080913101CF918ECD81E0E0
:1006000090E0CF917FCD8F929F92AF92BF92CF9289
:10061000DF92EF92FF920F931F93CF93DF93CDB7AB
:10062000DEB7982EB62ED42EFF841889809327012A
:10063000609328014093290120932A0100932B0104
:10064000E0922C01C0922D01A0922E0180922F01E8
:10065000F0923001109331012F3F39F00F3F29F014
:100660008FEFE81611F0C81204C084E080932601D1
:100670000FC088E08093260161E0822F4EDD61E0AB
:10068000802F4BDD61E08E2D48DD61E08C2D45DD56
:1006900061E0892D42DD61E08B2D3FDD61E08D2D34
:1006A0003CDD61E08A2D39DD61E0882D36DD61E0D9
:1006B0008F2D33DD61E0812FDF91CF911F910F915D
:1006C000FF90EF90DF90CF90BF90AF909F908F9072
:1006D00024CDCF93C82F56DF80912601883019F49E
:1006E0008C2F1BDF05C08C2FE1DE02DFC295C07F9F
:1006F0008C2FDCDECF91FCCE90912401891750F431
:100700001092320180933301E82FF0E0E050FF4F68
:100710008081DFCF089581E0DCDF80E0EDCF609362
:10072000250180932401833040F06F7080E9860FAB
:100730008093020160536093030184E690E0E2DC61
:1007400080912601883011F488E31BC08430D1F4F5
:1007500080E3ACDECDDE84E690E0D4DC80E3A6DE90
:10076000C7DE88EC90E0C5DC80E3A0DEC1DE88EC6B
:1007700090E0BFDC80E29ADEBBDE88EC90E0B9DC82
:1007800088E2A7DF8EE0A5DFC6CF809133018F5FBF
:10079000809333011092320190912401891710F057
:1007A00010923301E0913301F0E0E050FF4F80817F
:1007B00090CFCF93C82F9091320180912501981747
:1007C00050F4CA3041F0DEDE80912601883039F4E1
:1007D0008C2FA3DE09C0D9DFCA3071F0F4CF8C2F83
:1007E00065DEBBDEC295C07F8C2F60DEB6DE8091F9
:1007F00032018F5F80933201CF910895CF93DF93C1
:10080000EC018991882311F0D4DFFBCFDF91CF91E8
:1008100008951ABAC7E1D6E1C89B19C0CF93DF93F8
:1008200025E1822E34E1A32ECC24CA94EE24EA944E
:100830000FEF2FEF4AE069E088E0E5DE60E182E05B
:100840006EDF84E091E0DADF0F900F90E5CF63DF99
:10085000C89919C0CF93DF9385E1882E94E1A92E22
:10086000CC24CA94EE24EA940FEF2FEF4AE069E01B
:1008700088E0C9DE60E182E052DF85E191E0BEDF21
:100880000F900F90E5CF47DFC7CFEE0FFF1F00247B
:10089000001C0BBE0790F691E02D0994F894FFCF51
:1008A00080C090D04D6F74696F6E2044657465632D
:1008B00074656421004D6F74696F6E20456E6465C8
:0408C00064210000AF
:00000001FF
