:100000000C9446000C9465000C9465000C946500FB
:100010000C9465000C9465000C9465000C946500CC
:100020000C9465000C9465000C9465000C946500BC
:100030000C9465000C9465000C9465000C946500AC
:100040000C9465000C9465000C9465000C9465009C
:100050000C9465000C9465000C9465000C9465008C
:100060000C9465000C9465000C9465000C9465007C
:100070000C9465000C9465000C9465000C9465006C
:100080000C9465000C9465000C94650011241FBE4F
:10009000CFEFD0E1DEBFCDBF11E0A0E0B1E0E6E1FF
:1000A000F7E000E00BBF02C007900D92A232B1074B
:1000B000D9F711E0A2E2B1E001C01D92A732B10769
:1000C000E1F70E9484000C9489030C9400000097CF
:1000D00059F02FEF33ED40E3215030404040E1F73D
:1000E00000C000000197A9F70895E199FECF9FBBDA
:1000F0008EBB6DBBE29AE19A0895E199FECF9FBB5A
:100100008EBBE09A8DB3089584E062E040E10E94E6
:100110003C01C0E0D1E00FE011E081E00E94250148
:10012000CE010E94CB0188E50E949A0180E090E018
:1001300068E50E94750082E00E942501C8010E94C6
:10014000CB0180E090E00E947D000E949A01E5CF03
:10015000982F84FF02C0AC9A01C0AC9895FF02C0F2
:10016000AD9A01C0AD9896FF02C0AE9A01C0AE989C
:10017000882314F4AF9A0895AF980895A798959896
:10018000969AE6E2F1E0979885E38A95F1F7000008
:10019000979A95E39A95F1F7000083B39081943094
:1001A00051F4979895E39A95F1F70000979A95E3A3
:1001B0009A95F1F70000882334F3A79A089595984B
:1001C0009698979A85E38A95F1F700009798089595
:1001D000959A9698979A85E38A95F1F700009798F3
:1001E0000895CF93C82F0E94BE00809126018830C9
:1001F00021F4C5BB0E94DF000EC0843061F48C2F57
:100200000E94A8000E94DF008C2F8295807F0E94B0
:10021000A8000E94DF00CF910895809123018F5F95
:10022000809323011092220190912401981718F4D1
:1002300081E08093230180912301EDE1F1E0E80F5B
:10024000F11D80810E94F10008959091240198177A
:1002500058F01092220180932301EDE1F1E0E80FC4
:10026000F11D80810E94F100089581E00E94F1005B
:1002700081E00E94250108959FEF94BB91BB80937C
:1002800026014093250160932401633040F04F70B4
:10029000842F8057809320014053409321018FEF9A
:1002A00091EEA4E081509040A040E1F700C0000032
:1002B00080912601883021F488E30E94F10034C047
:1002C000843091F580E30E94A8000E94DF008FEF48
:1002D00091EEA4E081509040A040E1F700C0000002
:1002E00080E30E94A8000E94DF00AFE1B3E0119715
:1002F000F1F700C0000080E30E94A8000E94DF0028
:100300008FE193E00197F1F700C0000080E20E94C6
:10031000A8000E94DF00AFE1B3E01197F1F700C041
:10032000000088E20E94F1008EE00E94F1000E942D
:1003300035010895CF93C82F909125018091220116
:10034000891718F4CA3029F422C00E940D01CA305E
:1003500001F10E94BE0080912601883021F4C5BBC6
:100360000E94E8000EC0843061F48C2F0E94A80027
:100370000E94E8008C2F8295807F0E94A8000E9436
:10038000E800809122018F5F8093220102C00E94C9
:100390000D01CF910895CF93DF93EC0188818823DD
:1003A00031F021960E949A0189918823D9F7DF9133
:1003B000CF9108958F929F92AF92BF92EF92FF924A
:1003C0000F931F93CF93DF93CDB7DEB72A970FB666
:1003D000F894DEBF0FBECDBFDC01CB01042F009728
:1003E000A105B10519F0442371F443C0442309F475
:1003F00040C0FE01319610E011921F5F101781F18D
:100400001A30D1F72DC07E010894E11CF11C10E0D8
:100410000F2EFAE08F2EF0E09F2EF0E0AF2EF0E0EE
:10042000BF2EF02D0097A105B10569F0BC01CD01EB
:10043000A50194010E946703F7016083822F932F27
:10044000A42FB52F04C00B3048F4F70110821F5FB2
:100450000894E11CF11C101729F702C0112349F080
:10046000FE01E10FF11D8081805D0E949A01115013
:10047000B9F72A960FB6F894DEBF0FBECDBFDF9155
:10048000CF911F910F91FF90EF90BF90AF909F90F1
:100490008F9008956F927F928F929F92AF92BF92AA
:1004A000CF92DF92EF92FF920F931F93CF93DF9340
:1004B000CDB7DEB70F2EF1E1EF2EFF24F02DEC0EBD
:1004C000FD1ED701ED91FD917D018081882309F406
:1004D000EFC06F0199249A948824853209F0DCC01A
:1004E00056010894A11CB11CF6018181982F9053EC
:1004F0009A3080F43296082D000F902F990F990FA3
:10050000090F8053080F5F018191982F90539A3003
:1005100098F301C0092D883509F49CC08935C0F4D1
:10052000843409F451C0853448F4823409F49CC001
:10053000833428F5853209F0B2C0AAC0833509F4A6
:100540009DC0853509F471C0863409F0A8C091C0FA
:10055000863609F48EC0873640F4833681F08436BF
:10056000B9F0823609F09BC07AC0853709F44CC0D7
:10057000883709F46AC0833709F091C07FC08701CA
:100580000E5F1F4FD7018C910E949A01780187C09E
:1005900066247724689461F86E0C7F1CF701C08094
:1005A000D180DD203CF4D094C194D108D3948DE265
:1005B0000E949A01B601882777FD8095982F402FD9
:1005C0000E94DA0173016BC066247724689462F894
:1005D0006E0C7F1CD701CD90DD90ED90FC901397B1
:1005E000FF205CF4F094E094D094C094C11CD11C22
:1005F000E11CF11C8DE20E949A01C701B601402F57
:100600000E94DA0173014BC0CC24DD246894C1F848
:10061000CE0CDF1CF70180819181BC0180E090E06D
:10062000402F0E94DA0176013AC0CC24DD24689480
:10063000C2F8CE0CDF1CD7016D917D918D919C91FC
:10064000402F0E94DA0176012AC0E2E0F0E0EE0ECF
:10065000FF1E25C084E090E0E80EF91E20C0A2E055
:10066000B0E0EA0EFB1E1BC0E4E0F0E0EE0EFF1E61
:1006700016C084E090E0E80EF91E11C0F701A2E078
:10068000B0E0EA0EFB1E808191810E94CB0107C081
:1006900085E20E949A0103C00E949A0156016501F9
:1006A0000894C11CD11CF5018181882309F015CF64
:1006B000DF91CF911F910F91FF90EF90DF90CF903E
:1006C000BF90AF909F908F907F906F900895A1E220
:1006D0001A2EAA1BBB1BFD010DC0AA1FBB1FEE1FBC
:1006E000FF1FA217B307E407F50720F0A21BB30B07
:1006F000E40BF50B661F771F881F991F1A9469F783
:1007000060957095809590959B01AC01BD01CF01DE
:060710000895F894FFCFEC
:10071600456570726F6D2057726974653A200045A1
:100726006570726F6D20526561643A20008080C0EA
:0207360090D061
:00000001FF
