:100000000C9446000C9465000C9465000C946500FB
:100010000C9465000C9465000C9465000C946500CC
:100020000C9465000C9465000C9465000C946500BC
:100030000C9465000C9465000C9465000C946500AC
:100040000C9465000C9465000C9465000C9465009C
:100050000C9465000C9465000C9465000C9465008C
:100060000C9465000C9465000C9465000C9465007C
:100070000C9465000C9465000C9465000C9465006C
:100080000C9465000C9465000C94650011241FBE4F
:10009000CFEFD0E1DEBFCDBF11E0A0E0B1E0ECE4F6
:1000A000F1E000E00BBF02C007900D92A430B10751
:1000B000D9F711E0A4E0B1E001C01D92A430B1076E
:1000C000E1F70E9475000C94A4000C9400000097C6
:1000D00059F02FEF33ED40E3215030404040E1F73D
:1000E00000C000000197A9F708958FEF84BB8ABB79
:1000F00061E0E0E0F1E052E08F010F5F1F4F44E06C
:10010000EF01229638E0CF01039665BB20812BBB1F
:1001100025E32A95F1F7000055BBD8012C912BBBA4
:10012000B5E3BA95F1F7000045BB28812BBB25E369
:100130002A95F1F7000035BBDC012C912BBBB5E310
:0C014000BA95F1F70000E1CFF894FFCF72
:04014C00C0F9A4B0A2
:00000001FF
