:100000000C9446000C9465000C9465000C946500FB
:100010000C9465000C9465000C9465000C946500CC
:100020000C9465000C9465000C9465000C946500BC
:100030000C9465000C9465000C9465000C946500AC
:100040000C9465000C9465000C9465000C9465009C
:100050000C9465000C9465000C9465000C9465008C
:100060000C9465000C9465000C9465000C9465007C
:100070000C9465000C9465000C9465000C9465006C
:100080000C9465000C9465000C94650011241FBE4F
:10009000CFEFD0E1DEBFCDBF11E0A0E0B1E0E6E2FE
:1000A000F7E000E00BBF02C007900D92A032B1074D
:1000B000D9F711E0A0E2B1E001C01D92A532B1076D
:1000C000E1F70E942B030C9491030C94000081E84B
:1000D00086B917B8089587B9369A349BFECF84B194
:1000E00095B10895009759F02FEF33ED40E321507B
:1000F00030404040E1F700C000000197A9F70895A3
:10010000982F84FF02C0AC9A01C0AC9895FF02C042
:10011000AD9A01C0AD9896FF02C0AE9A01C0AE98EC
:10012000882314F4AF9A0895AF980895A7989598E6
:10013000969AE4E2F1E0979885E38A95F1F700005A
:10014000979A95E39A95F1F7000083B390819430E4
:1001500051F4979895E39A95F1F70000979A95E3F3
:100160009A95F1F70000882334F3A79A089595989B
:100170009698979A85E38A95F1F7000097980895E5
:10018000959A9698979A85E38A95F1F70000979843
:100190000895CF93C82F0E94960080912401883043
:1001A00021F4C5BB0E94B7000EC0843061F48C2FCF
:1001B0000E9480000E94B7008C2F8295807F0E9451
:1001C00080000E94B700CF910895809121018F5F38
:1001D000809321011092200190912201981718F428
:1001E00081E08093210180912101E0E0F1E0E80FBE
:1001F000F11D80810E94C9000895909122019817F5
:1002000058F01092200180932101E0E0F1E0E80F26
:10021000F11D80810E94C900089581E00E94C900FB
:1002200081E00E94FD0008959FEF94BB91BB8093F5
:1002300024014093230160932201633040F04F700A
:10024000842F8057809303014053409304018FEF24
:1002500091EEA4E081509040A040E1F700C0000082
:1002600080912401883021F488E30E94C90034C0C1
:10027000843091F580E30E9480000E94B7008FEFE8
:1002800091EEA4E081509040A040E1F700C0000052
:1002900080E30E9480000E94B700AFE1B3E01197B5
:1002A000F1F700C0000080E30E9480000E94B700C8
:1002B0008FE193E00197F1F700C0000080E20E9417
:1002C00080000E94B700AFE1B3E01197F1F700C0E2
:1002D000000088E20E94C9008EE00E94C9000E94CE
:1002E0000D010895CF93C82F909123018091200193
:1002F000891718F4CA3029F422C00E94E500CA30D8
:1003000001F10E94960080912401883021F4C5BB40
:100310000E94C0000EC0843061F48C2F0E948000C7
:100320000E94C0008C2F8295807F0E9480000E94D6
:10033000C000809120018F5F8093200102C00E9445
:10034000E500CF9108958F929F92AF92BF92EF9266
:10035000FF920F931F93CF93DF93CDB7DEB72A970A
:100360000FB6F894DEBF0FBECDBFDC01CB01042F6A
:100370000097A105B10519F0442371F443C044234B
:1003800009F440C0FE01319610E011921F5F101772
:1003900081F11A30D1F72DC07E010894E11CF11CC7
:1003A00010E00F2EFAE08F2EF0E09F2EF0E0AF2E3F
:1003B000F0E0BF2EF02D0097A105B10569F0BC015A
:1003C000CD01A50194010E946F03F7016083822F84
:1003D000932FA42FB52F04C00B3048F4F7011082DF
:1003E0001F5F0894E11CF11C101729F702C01123AC
:1003F00049F0FE01E10FF11D8081805D0E947201D4
:100400001150B9F72A960FB6F894DEBF0FBECDBFD4
:10041000DF91CF911F910F91FF90EF90BF90AF9020
:100420009F908F9008956F927F928F929F92AF923C
:10043000BF92CF92DF92EF92FF920F931F93CF93D1
:10044000DF93CDB7DEB70F2EF1E1EF2EFF24F02DB5
:10045000EC0EFD1ED701ED91FD917D018081882379
:1004600009F4EAC06F0199249A948824853209F02E
:10047000D7C056010894A11CB11CF6018181982FA8
:1004800090539A3080F43296082D000F902F990FD8
:10049000990F090F8053080F5F018191982F905396
:1004A0009A3098F301C0092D883509F49CC089352C
:1004B000C0F4843409F451C0853448F4823409F41A
:1004C0009CC0833428F5853209F0ADC0A5C08335C2
:1004D00009F49DC0853509F471C0863409F0A3C0C4
:1004E00091C0863609F48EC0873640F4833681F099
:1004F0008436B9F0823609F096C07AC0853709F49F
:100500004CC0883709F46AC0833709F08CC07FC0BB
:1005100087010E5F1F4FD7018C910E9472017801F5
:1005200082C066247724689461F86E0C7F1CF70102
:10053000C080D180DD203CF4D094C194D108D39404
:100540008DE20E947201B601882777FD8095982F71
:10055000402F0E94A301730166C06624772468942B
:1005600062F86E0C7F1CD701CD90DD90ED90FC9071
:100570001397FF205CF4F094E094D094C094C11CD5
:10058000D11CE11CF11C8DE20E947201C701B60171
:10059000402F0E94A301730146C0CC24DD2468943F
:1005A000C1F8CE0CDF1CF70180819181BC0180E095
:1005B00090E0402F0E94A301760135C0CC24DD24B9
:1005C0006894C2F8CE0CDF1CD7016D917D918D919E
:1005D0009C91402F0E94A301760125C0E2E0F0E04B
:1005E000EE0EFF1E20C084E090E0E80EF91E1BC056
:1005F000A2E0B0E0EA0EFB1E16C0E4E0F0E0EE0E72
:10060000FF1E11C084E090E0E80EF91E0CC0A2E0CD
:10061000B0E0EA0EFB1E07C085E20E94720103C033
:100620000E947201560165010894C11CD11CF5019C
:100630008181882309F01ACFDF91CF911F910F910B
:10064000FF90EF90DF90CF90BF90AF909F908F90F2
:100650007F906F90089584E062E040E10E94140171
:100660000E9467000F2EF5E0AF2EF1E0BF2EF02DB7
:1006700080E00E946B00EC0181E00E946B008C0125
:1006800082E00E946B007C0183E00E946B006C01A1
:1006900081E00E94FD008DB79EB70A970FB6F894CF
:1006A0009EBF0FBE8DBFEDB7FEB73196ADB7BEB7DB
:1006B0001296BC92AE921197D383C28315830483A2
:1006C000F782E682D186C0860E9413028DB79EB75C
:1006D0000A960FB6F8949EBF0FBE8DBFC9CFA1E298
:1006E0001A2EAA1BBB1BFD010DC0AA1FBB1FEE1FAC
:1006F000FF1FA217B307E407F50720F0A21BB30BF7
:10070000E40BF50B661F771F881F991F1A9469F772
:1007100060957095809590959B01AC01BD01CF01CE
:060720000895F894FFCFDC
:100726008080C090D043303A25642043313A256416
:10073600200A43323A25642043333A2564200000D8
:00000001FF
