:100000000C9446000C9465000C9465000C946500FB
:100010000C9465000C9465000C9465000C946500CC
:100020000C9465000C9465000C9465000C946500BC
:100030000C9465000C9465000C9465000C946500AC
:100040000C9465000C9465000C9465000C9465009C
:100050000C9465000C9465000C9465000C9465008C
:100060000C9465000C9465000C9465000C9465007C
:100070000C9465000C9465000C9465000C9465006C
:100080000C9465000C9465000C94650011241FBE4F
:10009000CFEFD0E1DEBFCDBF11E0A0E0B1E0EAECF0
:1000A000F6E000E00BBF02C007900D92A431B1074B
:1000B000D9F711E0A4E1B1E001C01D92A931B10767
:1000C000E1F70E941F030C9463030C94000081E885
:1000D00086B917B8089587B9369A349BFECF84B194
:1000E00095B10895009759F02FE33DE043E021508A
:1000F00030404040E1F700C000000197A9F70895A3
:10010000982F84FF02C0AC9A01C0AC9895FF02C042
:10011000AD9A01C0AD9896FF02C0AE9A01C0AE98EC
:10012000882314F4AF9A0895AF980895A7989598E6
:10013000969AE8E1F1E0979883E08A95F1F700005C
:10014000979A93E09A95F1F7000083B390819430E9
:1001500051F4979893E09A95F1F70000979A93E0FD
:100160009A95F1F70000882334F3A79A089595989B
:100170009698979A83E08A95F1F7000097980895EA
:10018000959A9698979A83E08A95F1F70000979848
:100190000895CF93C82F0E9496008091180188304F
:1001A00021F4C5BB0E94B7000EC0843061F48C2FCF
:1001B0000E9480000E94B7008C2F8295807F0E9451
:1001C00080000E94B700CF910895809115018F5F44
:1001D000809315011092140190911601981718F44C
:1001E00081E08093150180911501E0E0F1E0E80FD6
:1001F000F11D80810E94C900089590911601981701
:1002000058F01092140180931501E0E0F1E0E80F3E
:10021000F11D80810E94C900089581E00E94C900FB
:1002200081E00E94FD0008959FEF94BB91BB8093F5
:1002300018014093170160931601633040F04F702E
:10024000842F80578093030140534093040187EA31
:1002500091E60197F1F700C0000080911801883005
:1002600021F488E30E94C9002BC0843049F580E363
:100270000E9480000E94B70087EA91E60197F1F79B
:1002800000C0000080E30E9480000E94B70092E45A
:100290009A95F1F700C080E30E9480000E94B700A9
:1002A00082E48A95F1F700C080E20E9480000E94FB
:1002B000B70092E49A95F1F700C088E20E94C90065
:1002C0008EE00E94C9000E940D010895CF93C82FAF
:1002D0009091170180911401891718F4CA3029F4FC
:1002E00022C00E94E500CA3001F10E949600809170
:1002F0001801883021F4C5BB0E94C0000EC08430B4
:1003000061F48C2F0E9480000E94C0008C2F829587
:10031000807F0E9480000E94C000809114018F5F46
:100320008093140102C00E94E500CF9108958F923E
:100330009F92AF92BF92EF92FF920F931F93CF9332
:10034000DF93CDB7DEB72A970FB6F894DEBF0FBEA6
:10035000CDBFDC01CB01042F0097A105B10519F039
:10036000442371F443C0442309F440C0FE01319694
:1003700010E011921F5F101781F11A30D1F72DC0D4
:100380007E010894E11CF11C10E00F2EFAE08F2E84
:10039000F0E09F2EF0E0AF2EF0E0BF2EF02D0097A2
:1003A000A105B10569F0BC01CD01A50194010E9430
:1003B0004103F7016083822F932FA42FB52F04C030
:1003C0000B3048F4F70110821F5F0894E11CF11C08
:1003D000101729F702C0112349F0FE01E10FF11DAA
:1003E0008081805D0E9466011150B9F72A960FB690
:1003F000F894DEBF0FBECDBFDF91CF911F910F915B
:10040000FF90EF90BF90AF909F908F9008956F9264
:100410007F928F929F92AF92BF92CF92DF92EF9294
:10042000FF920F931F93CF93DF93CDB7DEB70F2EBD
:10043000F1E1EF2EFF24F02DEC0EFD1ED701ED9122
:10044000FD917D018081882309F4EAC06F01992420
:100450009A948824853209F0D7C056010894A11CCB
:10046000B11CF6018181982F90539A3080F4329616
:10047000082D000F902F990F990F090F8053080F27
:100480005F018191982F90539A3098F301C0092D04
:10049000883509F49CC08935C0F4843409F451C00E
:1004A000853448F4823409F49CC0833428F58532BD
:1004B00009F0ADC0A5C0833509F49DC0853509F4A8
:1004C00071C0863409F0A3C091C0863609F48EC08D
:1004D000873640F4833681F08436B9F0823609F0ED
:1004E00096C07AC0853709F44CC0883709F46AC0D1
:1004F000833709F08CC07FC087010E5F1F4FD70183
:100500008C910E946601780182C0662477246894E9
:1005100061F86E0C7F1CF701C080D180DD203CF4B7
:10052000D094C194D108D3948DE20E946601B601A3
:10053000882777FD8095982F402F0E94970173019F
:1005400066C066247724689462F86E0C7F1CD7011D
:10055000CD90DD90ED90FC901397FF205CF4F0942B
:10056000E094D094C094C11CD11CE11CF11C8DE21C
:100570000E946601C701B601402F0E9497017301D6
:1005800046C0CC24DD246894C1F8CE0CDF1CF701F2
:1005900080819181BC0180E090E0402F0E94970112
:1005A000760135C0CC24DD246894C2F8CE0CDF1C63
:1005B000D7016D917D918D919C91402F0E94970163
:1005C000760125C0E2E0F0E0EE0EFF1E20C084E0E0
:1005D00090E0E80EF91E1BC0A2E0B0E0EA0EFB1EA0
:1005E00016C0E4E0F0E0EE0EFF1E11C084E090E0E3
:1005F000E80EF91E0CC0A2E0B0E0EA0EFB1E07C038
:1006000085E20E94660103C00E94660156016501F1
:100610000894C11CD11CF5018181882309F01ACFEF
:10062000DF91CF911F910F91FF90EF90DF90CF90CE
:10063000BF90AF909F908F907F906F90089584E0CF
:1006400062E040E10E9414010E9467000E940D01D7
:10065000C5E0D1E080E00E946B0000D000D0EDB793
:10066000FEB7D283C18396958795948383830E9436
:1006700007020F900F900F900F9081E00E94FD00F5
:10068000E9CFA1E21A2EAA1BBB1BFD010DC0AA1FB8
:10069000BB1FEE1FFF1FA217B307E407F50720F0EB
:1006A000A21BB30BE40BF50B661F771F881F991F66
:1006B0001A9469F760957095809590959B01AC01AF
:0A06C000BD01CF010895F894FFCFAB
:1006CA008080C090D054656D707261747572653A9D
:0406DA002564000093
:00000001FF
