:1000000045C0000058C0000056C0000054C00000A9
:1000100052C0000050C000004EC000004CC00000A4
:100020004AC0000048C0000046C0000044C00000B4
:1000300042C0000040C000003EC000003CC00000C4
:100040003AC0000038C0000036C0000034C00000D4
:1000500032C0000030C000002EC000002CC00000E4
:100060002AC0000028C0000026C0000024C00000F4
:1000700022C0000020C000001EC000001CC0000004
:100080001AC0000018C0000016C0000011241FBED6
:10009000CFEFD0E1DEBFCDBF11E0A0E0B1E0E4E200
:1000A000F1E000E00BBF02C007900D92A431B10750
:1000B000D9F70FD035C0A4CF9093900089B988E1CB
:1000C0008AB98EE08093950008955D9BFECF8CB930
:1000D0000895CF93DF93CDB7DEB762970FB6F8944C
:1000E000DEBF0FBECDBF82E1E0E0F1E0DE011196A0
:1000F00001900D928A95E1F787E690E0DDDF80E0E0
:1001000011E0180FE1E0F0E0EC0FFD1FE80FF11D2A
:100110008081DBDF123110F4812FF2CF10E0FCCFB1
:04012000F894FFCF81
:100124000A0D4578706C6F726520456D6265646474
:0401340065640000FE
:00000001FF
