:100000000C9446000C9465000C9465000C946500FB
:100010000C9465000C9465000C9465000C946500CC
:100020000C9465000C9465000C9465000C946500BC
:100030000C9465000C9465000C9465000C946500AC
:100040000C9465000C9465000C9465000C9465009C
:100050000C9465000C9465000C9465000C9465008C
:100060000C9465000C9465000C9465000C9465007C
:100070000C9465000C9465000C9465000C9465006C
:100080000C9465000C9465000C94650011241FBE4F
:10009000CFEFD0E1DEBFCDBF11E0A0E0B1E0EEE4F4
:1000A000F4E000E00BBF02C007900D92A630B1074C
:1000B000D9F711E0A6E0B1E001C01D92AB30B10765
:1000C000E1F70E9419020C9425020C94000080EFC5
:1000D00087BB08959FE098BB86B38F708F30D9F7A8
:1000E000E7EBFBE03197F1F700C0000098BB86B367
:1000F0008F708F3081F708959FE098BB86B38F7023
:100100008F30D9F3E7EBFBE03197F1F700C0000047
:1001100098BB86B38F708F3081F308950E946A0078
:1001200087EB9BE00197F1F700C000000E947C0084
:1001300094E08FEE88BBE7EBFBE03197F1F700C06E
:10014000000026B32F702F3021F4880F8F5F91505D
:1001500089F7807F280F2E3B09F440C02F3B98F48D
:100160002E3709F443C02F3738F42B37D9F12D3708
:10017000D9F12737E9F534C02B3B61F12D3B61F113
:10018000273BB1F525C02E3D09F12F3D38F42B3D1D
:10019000C9F02D3DC9F0273D59F512C02B3E51F154
:1001A0002C3E18F4273E21F505C02D3E29F02E3EA9
:1001B000F9F404C083E4089585E4089586E408957D
:1001C00088E3089589E3089581E4089582E4089519
:1001D00084E3089585E3089586E3089587E3089509
:1001E00080E3089581E3089582E3089583E3089509
:1001F0008AE7089584E40895982F84FF02C0AC9A9A
:1002000001C0AC9895FF02C0AD9A01C0AD9896FFB1
:1002100002C0AE9A01C0AE98882314F4AF9A089534
:10022000AF980895A7989598969AEAE0F1E0979884
:1002300088E28A95F1F7979A98E29A95F1F783B355
:100240009081943041F4979898E29A95F1F7979AB3
:1002500098E29A95F1F7882354F3A79A0895959810
:100260009698979A88E28A95F1F797980895959AC3
:100270009698979A88E28A95F1F797980895CF9380
:10028000C82F0E94120180910A01883021F4C5BB59
:100290000E942F010EC0843061F48C2F0E94FC005C
:1002A0000E942F018C2F8295807F0E94FC000E946B
:1002B0002F01CF910895809107018F5F80930701EF
:1002C0001092060190910801981718F481E080932C
:1002D000070180910701E0E0F1E0E80FF11D808166
:1002E0000E943F01089590910801981758F01092CC
:1002F000060180930701E0E0F1E0E80FF11D808145
:100300000E943F01089581E00E943F0181E00E9428
:10031000730108959FEF94BB91BB80930A014093B2
:10032000090160930801633040F04F70842F8057BB
:10033000809303014053409304018FE799EAA3E0BF
:1003400081509040A040E1F700C0000080910A0178
:10035000883021F488E30E943F0134C0843091F555
:1003600080E30E94FC000E942F018FE799EAA3E03E
:1003700081509040A040E1F700C0000080E30E945F
:10038000FC000E942F01A7E5B2E01197F1F700C031
:10039000000080E30E94FC000E942F0187E592E0AC
:1003A0000197F1F700C0000080E20E94FC000E946B
:1003B0002F01A7E5B2E01197F1F700C0000088E235
:1003C0000E943F018EE00E943F010E948301089538
:1003D000CF93C82F9091090180910601891718F4D5
:1003E000CA3029F422C00E945B01CA3001F10E9488
:1003F000120180910A01883021F4C5BB0E943701A7
:100400000EC0843061F48C2F0E94FC000E943701E2
:100410008C2F8295807F0E94FC000E943701809182
:1004200006018F5F8093060102C00E945B01CF919D
:10043000089584E062E040E10E948A010E94670022
:0E0440000E948E000E94E801FBCFF894FFCFCF
:06044E008080C090D00088
:00000001FF
