S01900005344206361726420696E746572666163652E73726563E9
S113000053C0000070C000006EC000006CC000004F
S11300106AC0000068C0000066C0000064C0000040
S113002062C0000060C000005EC000005CC0000050
S11300305AC0000058C0000056C0000054C0000060
S113004052C0000050C000004EC000004CC0000070
S11300504AC0000048C0000046C0000044C0000080
S113006042C0000040C000003EC000003CC0000090
S11300703AC0000038C0000036C0000034C00000A0
S113008032C0000030C000002EC000001D0D380D2D
S1130090530D6E0D890DA40DC10DEE0D090E240E28
S11300A03F0E5A0E750E920E11241FBECFEFD0E1F3
S11300B0DEBFCDBF14E0A0E0B1E0ECE9F9E200E07E
S11300C00BBF02C007900D92AA3CB107D9F72BE0F1
S11300D0AAECB4E001C01D92A936B207E1F70E9470
S11300E0E9120C94CC148CCF009721F0FC01E35D51
S11300F0FD4F10820895CF92DF92EF92FF92CF933B
S1130100DF93C62FD82FFC0120E030E060E070E0E0
S1130110CB014E2F4D1B4C1798F4419150E0022E09
S113012002C0440F551F0A94E2F76A01550FEE0806
S1130130FF086C0D7D1D8E1D9F1D285F3F4FE9CF6D
S1130140DF91CF91FF90EF90DF90CF9008950F93C0
S11301501F939B01AC012250310941095109A0911F
S1130160E306B091E4060E94AC140091D50410910A
S1130170D6042091D7043091D804600F711F821FD8
S1130180931F1F910F9108952F923F924F925F9268
S11301907F928F929F92AF92BF92CF92DF92EF9213
S11301A0FF920F931F93CF93DF93EC01722E1701ED
S11301B02801CB01BA0122E0660F771F881F991F1F
S11301C02A95D1F72091D9043091DA0440E050E027
S11301D0E091E906F091EA06C090E506D090E606C3
S11301E0E090E706F090E806CE0EDF1EE11CF11C5D
S11301F00E9472144B015C01C20ED31EE41EF51E54
S11302001AE0B701A601CE010E94080F882311F05D
S11302101150B9F7FE01E80DF91D711008C0808175
S11302209181A281B381BC01CD019F700CC0208259
S1130230318242825382B701A601CE010E94330F5C
S113024060E070E0CB01DF91CF911F910F91FF909F
S1130250EF90DF90CF90BF90AF909F908F907F9062
S11302605F904F903F902F900895CF92DF92EF923E
S1130270FF920F931F93CF93DF93EC01488D598D19
S11302806A8D7B8D8C899D89AE89BF8948175907F2
S11302906A077B0708F05EC0FE01E35DFD4F8081C5
S11302A0813009F057C08EA19FA1892BD1F4CCA035
S11302B0DDA0C114D10449F46C817D818E819F81BC
S11302C046DF688379838A839B83488159816A8165
S11302D07B814C0D5D1D611D711DCE018C960E94AC
S11302E0080F2EA13FA1FE01E20FF31FD4A42F5F3C
S11302F03F4F3FA32EA3888D998DAA8DBB8D019668
S1130300A11DB11D888F998FAA8FBB8F21153240F3
S113031019F52CA13DA12F5F3F4F3DA32CA31FA294
S11303201EA28091E3069091E40628173907A1F4F0
S11303301DA21CA24C815D816E817F81E12CF12C78
S1130340870120E0CE018C961FDF6C837D838E8332
S11303509F8302C08AE1D82E8D2DDF91CF911F910A
S11303600F91FF90EF90DF90CF900895CF92DF929E
S1130370EF92FF920F931F93CF93DF936C018091C1
S1130380000190910101A0910201B09103018F3FFE
S11303909F4FAF4FBF4F59F56091DF067091E00654
S11303A08091E1069091E20660930001709301014F
S11303B080930201909303011092D0041092D1040F
S11303C01092D2041092D3041092CF041092CE044F
S11303D0BEDEAB01BC014093CA045093CB046093CE
S11303E0CC047093CD048FED94E00E94080FDEE2FC
S11303F02091CE043091CF04F901E152FB4F80816A
S113040081110DC08FEF9FEFDC0180930001909369
S11304100101A0930201B093030189E0B1C0853EBC
S113042071F183858F3059F1BF0180E0C0E0DB01B9
S11304309D91BD01903239F0A6014C0F511DDA0196
S113044014969C93CF5F8F5F8B3051F0883079F78F
S1130450A6014C0F511DDA011496DC93CF5FE7CF50
S1130460D601AC0FB11D14961C92848D958DA68D6A
S1130470B78DF60180839183A283B38301C0C0E06A
S1130480205E3F4F3093CF042093CE048091D90453
S11304909091DA042817390708F46EC01092CF043B
S11304A01092CE048091D0049091D104A091D204F2
S11304B0B091D3040196A11DB11D8093D0049093F3
S11304C0D104A093D204B093D3044091E306509195
S11304D0E40660E070E084179507A607B707A1F566
S11304E01092D0041092D1041092D2041092D3042A
S11304F0409100015091010160910201709103014A
S1130500E12CF12C870120E08FED94E03DDE609337
S113051000017093010180930201909303018B0108
S11305209C010150110921093109063F1F4F2F4F2A
S11305303F4008F067CF0BDE6093CA047093CB048E
S11305408093CC049093CD044091D0045091D10475
S11305506091D2047091D3048091CA049091CB0429
S1130560A091CC04B091CD04480F591F6A1F7B1F82
S11305708FED94E00E94080FCC2309F439CF88E072
S1130580DF91CF911F910F91FF90EF90DF90CF906B
S11305900895EF92FF920F931F93CF93DF9300D0B0
S11305A0CDB7DEB79A838983F62EE42E8C01409171
S11305B0E5065091E6066091E7067091E8064F5F04
S11305C05F4F6F4F7F4F0E94080F89819A81AB81E3
S11305D0BC8182359245A146B14409F03FC0CB515C
S11305E0DE4F88819981AA81BB81C55ED140823763
S11305F09247A144B14691F5C350DE4F8881998159
S1130600AA81BB81CD5FD1400097A545BA4A31F597
S1130610E11015C081E0F81209C0C751DE4F6881AE
S113062079818A819B81C95ED1401BC0C351DE4F51
S1130630688179818A819B81CD5ED14012C04091CD
S1130640E5065091E6066091E7067091E8064F5F73
S11306505F4F6F4F7F4FC8010E94330F6FEF7FEFE3
S1130660CB010F900F90DF91CF911F910F91FF90CD
S1130670EF9008952F923F924F925F926F927F92E4
S11306808F929F92AF92BF92CF92DF92EF92FF929E
S11306900F931F93CF93DF9300D000D0CDB7DEB775
S11306A0FC011B01A091E306B091E4062091DB0458
S11306B03091DC044091DD045091DE040E94AC14BE
S11306C09B01AC016AE056954795379527956A9545
S11306D0D1F7A091D904B091DA040E94AC146083DC
S11306E071838283938300E010E0980140E061E02D
S11306F08FED94E04EDF6B017C018091DB049091DF
S1130700DC04A091DD04B091DE048C159D05AE05DA
S1130710BF0508F076C01092670B8090DF069090BA
S1130720E006A090E106B090E20692E0880C991CE5
S1130730AA1CBB1C9A95D1F7412C512C3201C12C17
S1130740D12C76018091E9069091EA064091E50664
S11307505091E6066091E7067091E8068A019B01D4
S1130760080F191F211D311D09831A832B833C8314
S11307702091D9043091DA0440E050E0C501B4017D
S11307800E94721489819A81AB81BC81820F931F6C
S1130790A41FB51FAC01BD018FED94E00E94080FAA
S11307A04091DB045091DC046091DD047091DE041F
S11307B04E5F5F4F6F4F7F4FEFEDF4E080E0803886
S11307C0D1F001911191219131913F70012B022BB4
S11307D0032B29F49FEFC91AD90AE90AF90AAFEFE2
S11307E04A1A5A0A6A0A7A0A4416550666067706A7
S11307F011F08F5FE4CFB2E09B0EA11CB11C87FD0A
S1130800A1CFA091E306B091E406A70196010E944E
S1130810AC149B01AC018AE0569547953795279512
S11308208A95D1F7A091D904B091DA040E94AC144E
S1130830F10160837183828393830F900F900F90F3
S11308400F90DF91CF911F910F91FF90EF90DF9068
S1130850CF90BF90AF909F908F907F906F905F905C
S11308604F903F902F9008954F925F926F927F9296
S11308708F929F92AF92BF92CF92DF92EF92FF92AC
S11308800F931F93CF931092E5061092E6061092F1
S1130890E7061092E80640E050E0BA018FED94E0DC
S11308A00E94080F8091DF048D7F893E09F091C07A
S11308B062E08AEE94E01FDC7093DA046093D9045A
S11308C0C091EC048C2F90E09093E4068093E306AF
S11308D062E08DEE94E00FDC4B015C017093EA065C
S11308E06093E90664E08BE095E005DC6093DF0645
S11308F07093E0068093E1069093E20664E08BEF48
S113090094E0F9DB6B017C01AA24BB244090EF0442
S1130910512C612C712C64E083E095E0ECDB9B01AD
S1130920AC01C301B2010E946314DC01CB01880D48
S1130930991DAA1DBB1DC80ED91EEA1EFB1EC0921E
S1130940D504D092D604E092D704F092D80464E09F
S11309508FEF94E0D0DB6B017C01C818D908EA085A
S1130960FB0864E083E095E0C6DB9B01AC01C301B6
S1130970B2010E946314A7019601261B370B480B92
S1130980590BCA01B9012C2F30E040E050E00E941D
S113099072142093DB043093DC044093DD04509301
S11309A0DE0400E010E0980140E061E08FED94E0A7
S11309B0F0DDC090DB04D090DC04E090DD04F09026
S11309C0DE04C616D706E806F90620F51092670B72
S11309D024C08091DD069091DE0685359A4A11F097
S11309E083E01CC064E085EA96E085DBAB01BC01D2
S11309F04093E5065093E6066093E7067093E80695
S1130A008FED94E00E94080F8091DF048D7F893E72
S1130A1039F74ECF81E08093670B80E0CF911F912F
S1130A200F91FF90EF90DF90CF90BF90AF909F9089
S1130A308F907F906F905F904F9008954F925F9248
S1130A406F927F928F929F92AF92BF92CF92DF92DA
S1130A50EF92FF92CF93DF93EC016A017B0180E870
S1130A60C8224601570182E0880C991CAA1CBB1CB1
S1130A708A95D1F78091DB049091DC04A091DD0488
S1130A80B091DE04C816D906EA06FB0608F044C095
S1130A908091E9069091EA064091E5065091E606B8
S1130AA06091E7067091E8062A013B01480E591E41
S1130AB0611C711C2091D9043091DA0440E050E0AB
S1130AC0C501B4010E947214BA01A901440D551D57
S1130AD0661D771DCE010E94080FFE0120E04191A2
S1130AE05191619171917F70452B462B472B39F4BD
S1130AF0C701B601620F711D811D911D10C02F5FCA
S1130B00203869F780E8C80ED11CE11CF11C82E092
S1130B10980EA11CB11CAECF60E070E0CB01DF9158
S1130B20CF91FF90EF90DF90CF90BF90AF909F90C8
S1130B308F907F906F905F904F900895EF92FF9207
S1130B400F931F93CF93DF93CDB7DEB72B970FB6D9
S1130B50F894DEBF0FBECDBFAC017C01FC0190E078
S1130B6081918E3221F09F5F9C30D1F74CC0292FA8
S1130B70993008F048C0FE013196BF018A018E2FDA
S1130B80362F3E1B391738F4D8013D918D01DB0116
S1130B903D93BD01F5CF30E2983039F0BF01690FC4
S1130BA0711DDB013C939F5FF7CF2F5F60E28A01E9
S1130BB0020F111DD8013C91332339F02F5F8F01AF
S1130BC0090F111DD8013C930AC0392F9F5F8F0173
S1130BD0030F111DD8016C93392F9B30B8F39F5F1D
S1130BE09B3028F39BE0980F81912FE9280F2A313D
S1130BF008F48052D7018C93BFEFEB1AFB0A9E13C3
S1130C00F3CF83E001C084E02B960FB6F894DEBFE7
S1130C100FBECDBFDF91CF911F910F91FF90EF9049
S1130C2008952F923F924F925F926F927F928F928C
S1130C309F92AF92BF92CF92DF92EF92FF920F9367
S1130C401F93CF93DF93CDB7DEB72F970FB6F894EA
S1130C50DEBF0FBECDBF8F837F876E878090DF0698
S1130C609090E006A090E106B090E2067B012EECA5
S1130C70E21A2DEFF20AC70161DF843009F4E9C0FA
S1130C802E843F844CE2240E311CEA86FB868E853A
S1130C909F85835C9D4F99878887C501B40157DA86
S1130CA06B837C838D839E83412C512C320115E50B
S1130CB08091E3069091E406A0E0B0E0481659065E
S1130CC06A067B0608F07FC0153509F095C0CB8015
S1130CD0DC80ED80FE80C40CD51CE61CF71CB7013B
S1130CE0A601C1010E94080F6091D9047091DA0431
S1130CF0F10120E030E02617370708F05EC0FA83E0
S1130D00E9838081882309F457C0853E09F450C0E3
S1130D10AE85BF85A20FB31FD7968C918F3009F48F
S1130D2047C09A859C87AB85AD87CF01DC015D9177
S1130D30CD01AC85BD854D91BD87AC87541338C0BA
S1130D4048855985A417B50789F7AE85BF851C96D4
S1130D50CD92DD92ED92FC921F9740E050E05096C8
S1130D602D933D934D935C9353974489558960E04B
S1130D7070E0BA0155274427828D938DA0E0B0E03E
S1130D80482B592B6A2B7B2BAE85BF8590964D93B0
S1130D905D936D937C939397848D958DA68DB78D7C
S1130DA0EE85FF85848B958BA68BB78B10E005C0F1
S1130DB0205E3F4FB0969FCF11E0FFEF4F1A5F0ABE
S1130DC06F0A7F0A75CF1535B9F4E12CF12C870130
S1130DD020E0B501A401C101D7D94B015C01DC01BC
S1130DE0CB010197A109B109863F9F4FAF4FBF4087
S1130DF008F453CF85E02DC0812F111129C04F81F4
S1130E00411127C0A981BA8154964D915C9155979F
S1130E1060E070E0BA01552744275A96CD90DC90E3
S1130E205B97E12CF12C4C295D296E297F29EE85F5
S1130E30FF8544835583668377835C964D915D91EA
S1130E406D917C915F97448B558B668B778B01C03A
S1130E50812F2F960FB6F894DEBF0FBECDBFDF9162
S1130E60CF911F910F91FF90EF90DF90CF90BF90A3
S1130E70AF909F908F907F906F905F904F903F9036
S1130E802F9008952F923F924F925F926F927F928C
S1130E908F929F92AF92BF92CF92DF92EF92FF9286
S1130EA00F931F93CF93DF9300D000D000D0CDB722
S1130EB0DEB728E1A22E29E0B22E2BEE36E03E83E7
S1130EC02D833FEFC32E36E0D32ED5012C91211173
S1130ED07EC13A01962EBC013D802E8011E01C9308
S1130EE08D819E818E5C9D4F0E94C514ED81FE8193
S1130EF0E45DFD4F9082ED81FE81108211821282A9
S1130F0013821482158216821782148E158E168E01
S1130F10178E1486158616861786108A118A128AE9
S1130F20138AD6011D921D921D921C921397108E46
S1130F30118E128E138E1C961D921D921D921C9260
S1130F401F9751961C921E92509753961C921E9274
S1130F505297E25DFD4F1082ED81FE81EF5CFD4F03
S1130F60108291100AC06D817E8180E05ADEF30107
S1130F708083882309F41EC127C16EEF690D623096
S1130F8008F018C16D817E8181E04BDED3018C9322
S1130F90811196C0ED81FE81E15DFD4F1083F60164
S1130FA084859585A685B785ED81FE8184839583A7
S1130FB0A683B783412C512C32014F01FCE28F0EE2
S1130FC0911CAD81BE8114964D915D916D917C9182
S1130FD01797E12CF12C870120E0C401D5D86F3F8D
S1130FE0BFEF7B078B07BFE09B0761F0ED81FE81BC
S1130FF06483758386839783FFEF4F1A5F0A6F0AB2
S11310007F0ADFCFA091E306B091E406E091D90412
S1131010F091DA049F010E949D149B01AC01C3016D
S1131020B2010E946314D6010D911D912D913C9142
S113103028013901461A570A680A790AC301B2011C
S11310409F0140E050E00E947214D60151963C93F7
S11310502E935097ED81FE816481758186819781FD
S113106029833A834B835C8372D829813A814B81EB
S11310705C8189019A0122273327AB01BC01400F0F
S1131080511F621F731FAD81BE815C964D935D93AA
S11310906D937C935F97C401BBD62091D9043091A2
S11310A0DA0440E050E0F60160817181828193812D
S11310B00E947214D60153967C936E9352977AC011
S11310C0813009F09DC0F30110828D809E80FCE286
S11310D08F0E911C00E010E0980140E062E0C40132
S11310E058DAAD81BE8114966D937D938D939C9354
S11310F017970091DB041091DC042091DD043091FA
S1131100DE04061717072807390770F48091DF06F5
S11311109091E006A091E106B091E206ED81FE8196
S113112084839583A683B783AD81BE8114964D9144
S11311305D916D917C911797C40180DCAB01BC017A
S1131140ED81FE8144835583668377834115510580
S11311506105710521F485E0D3018C9335C0EE243B
S1131160EA94FE2C0FEF1FE021E0C4010DD8ED81BD
S1131170FE816481758186819781D60155969C9301
S11311808E93549757967C936E935697F6011082DC
S11311901182128213820E94A700AD81BE815C96E7
S11311A06D937D938D939C935F97F601138A128AB6
S11311B0118A108A4D805E80452819F081E0D5019E
S11311C08C93832D922D1FC080E090E01CC02D8154
S11311D03E812952394079F0B2ECAB1ABDEFBB0A1B
S11311E0ED81FE81E25CFD4FFE83ED83F2ECCF1ACC
S11311F0FDEFDF0A6ACE312C212C87E0DA01E0CF43
S1131200312C212CDECF26960FB6F894DEBF0FBE0C
S1131210CDBFDF91CF911F910F91FF90EF90DF90A1
S1131220CF90BF90AF909F908F907F906F905F9082
S11312304F903F902F9008958F929F92AF92BF92BC
S1131240CF92DF92EF92FF920F931F93CF93DF938E
S113125049015A0171E09722AA24BB2469017A0149
S113126059E0F694E794D794C7945A95D1F789280E
S11312708A288B2829F02FEFC21AD20AE20AF20A2E
S113128097018601077011272227332743E0F6943C
S1131290E794D794C7944A95D1F7012B022B032BDB
S11312A029F07FEFC71AD70AE70AF70A2091670BDC
S11312B02223C9F0B62EEC0100E010E0980140E0D2
S11312C061E067D98B019C01B11005C00C0D1D1D97
S11312D02E1D3F1D04C00C191D092E093F0941E0B4
S11312E061E0CE0156D9DF91CF911F910F91FF900C
S11312F0EF90DF90CF90BF90AF909F908F90089524
S11313002F923F924F925F926F927F928F929F9211
S1131310AF92BF92CF92DF92EF92FF920F931F93FF
S1131320CF93DF93FC01E35DFD4F2081213009F071
S113133027C234963081311123C2EC016A3109F499
S1131340CCC0319780818130C9F48EA19FA19C01CA
S11313502F5F3F4F3FA32EA3DE01A80FB91F2AE042
S11313609C962C938C899D89AE89BF890196A11D79
S1131370B11D8C8B9D8BAE8BBF8B10828EA19FA1D8
S1131380683091F4009709F442C001979FA38EA39B
S11313908C899D89AE89BF890197A109B1098C8B7C
S11313A09D8BAE8BBF8B33C09C012F5F3F4F3FA300
S11313B02EA3DE01A80FB91F9C966C938C889D8880
S11313C0AE88BF88750164014FEFC41AD40AE40AD9
S11313D0F40ACC8ADD8AEE8AFF8A6D30C1F42115C5
S11313E0A2E03A0719F481E0808311C002969FA31A
S11313F08EA3FE01E20FF31F8AE084A7B2E08B0EF6
S1131400911CA11CB11C8C8A9D8AAE8ABF8A8EA1B4
S11314109FA18115924008F4B3C11FA21EA26E01C0
S1131420FCE2CF0ED11C4C8D5D8D6E8D7F8DC6017F
S11314301AD52CA13DA12F5F3F4F3DA32CA3809132
S1131440E3069091E40628173907D9F51DA21CA2DA
S11314504C815D816E817F81488759876A877B874C
S1131460C601ECDA6C837D838E839F8361157105DD
S11314708105910509F484C188849984AA84BB8474
S11314807B018C0121E0B501A401C6010E94C400C6
S11314904C815D816E817F81EE24EA94FE2C0FEFF6
S11314A01FE021E0C6010E94C4006C817D818E8111
S11314B09F810E94A7006C8F7D8F8E8F9F8F1FA2AC
S11314C01EA28C8D9D8DAE8DBF8D0196A11DB11D6B
S11314D08C8F9D8FAE8FBF8F53C120838EA19FA110
S11314E0811522E0920740F4FE01E80FF91F14A6CB
S11314F001969FA38EA3F2CF3E014CE2640E711CB1
S11315004C8D5D8D6E8D7F8DC301ADD40C811D819D
S11315102E813F8141E062E0C3013BD8FE01E15DE1
S1131520FD4F80818823D1F14C855D856E857F8553
S1131530C3016ED4E889F989BC96EC0FFD1F8C8930
S11315409D89AE89BF89448D558D668D778D6C01DB
S11315507D01C41AD50AE60AF70A848F958FA68FEF
S1131560B78F4C855D856E857F85C3017CD4A701CB
S1131570960161E0C301DF91CF911F910F91FF901C
S1131580EF90DF90CF90BF90AF909F908F907F901F
S11315906F905F904F903F902F904ECE8091DF06DA
S11315A09091E006A091E106B091E20688879987C0
S11315B0AA87BB875E0182EDA81A8DEFB80A1E01C7
S11315C0AEEC2A1AADEF3A0A2E01B3EC4B1ABDEF7A
S11315D05B0A9CE1892E9DE6992E22E4C22E27E423
S11315E0D22E688579858A859B850E94A7006883A9
S11315F079838A839B831DA21CA28CA19DA1209127
S1131600E3063091E4068217930708F070C048811E
S113161059816A817B81480F591F611D711DC30166
S1131620F7D31FA21EA211E0EEA1FFA18091D9045D
S11316309091DA04E817F90708F053C0BC96EC0F50
S1131640FD1FD5018C91882311F0108299C08081EF
S1131650882319F0853E09F03EC0A101CF01DA01CB
S11316602D91AD01DC012D93CD0144155505B9F73C
S1131670B0E2B3871486158697868686D18AC08A97
S1131680D38AC28A978A868AD18EC08E88A599A564
S1131690958B848B8AA59BA5938F828F8C899D893A
S11316A0AE89BF89848F958FA68FB78F8CA19DA19A
S11316B0488159816A817B81480F591F611D711DC1
S11316C0C301D1D3F50110832C893D894E895F89EB
S11316D061E0C301B1DD8EA19FA180969FA38EA37B
S11316E0A3CF8CA19DA101969DA38CA386CF4885F1
S11316F059856A857B85E12CF12C870120E0C301A3
S11317000E94C4006C837D838E839F83673FFFEFB9
S11317107F078F07FFE09F0730F16F3F7F4F8F4FA9
S11317209F4071F5488559856A857B85C30186D9B3
S11317307B018C016C837D838E839F8348855985CF
S11317406A857B8521E0C3010E94C4004C815D81D0
S11317506E817F81EE24EA94FE2C0FEF1FE021E0DE
S1131760C3010E94C4008C819D81AE81BF8100971A
S1131770A105B10529F088879987AA87BB8731CF4E
S1131780DF91CF911F910F91FF90EF90DF90CF9059
S1131790BF90AF909F908F907F906F905F904F908D
S11317A03F902F9008952F923F924F925F926F92A5
S11317B07F928F929F92AF92BF92CF92DF92EF92DD
S11317C0FF920F931F93CF93DF9300D000D000D0EC
S11317D0CDB7DEB71C018090DF069090E006A090A4
S11317E0E106B090E206AC01455F5F4F5E834D8336
S11317F0C501B4010E94A70069837A838B839C830B
S1131800C12CD12C76018091E3069091E406A0E0EE
S1131810B0E0C816D906EA06FB06E8F549805A8006
S11318206B807C804C0C5D1C6E1C7F1CB301A20180
S11318308FED94E0EDD22091D9043091DA040FEDCC
S113184014E080E090E082179307F8F4D8014C91FB
S1131850442309F490C0453EA1F0FC01E152FB4F42
S113186043854F3071F0F101B801DB015D91BD0199
S11318704191541306C04D815E81E417F507A9F721
S113188022C08096005E1F4FDECF8FEFC81AD80AA1
S1131890E80AF80AB8CFE12CF12C870120E0B50161
S11318A0A4018FED94E00E94C4004B015C01DC01B3
S11318B0CB010197A109B109863F9F4FAF4FBF40AC
S11318C008F496CF58C0D80154968D909C905597A3
S11318D0A12CB12CD40199278827F801828C938CF0
S11318E0A12CB12C882A992AAA2ABB2A85EE8083A6
S11318F0B301A2018FED94E0B6D2D8015C962D918C
S11319003D914D915C915F9760E08FED94E094DCA4
S113191000E010E0980140E062E08FED94E00E9466
S1131920C90286169706A806B90640F495018401F3
S113193041E062E08FED94E00E94C902E12CF12CB9
S1131940870120E0B501A4018FED94E00E94C4005A
S11319506B013C0121E0B501A4018FED94E00E94EC
S1131960C4004601530157EF85165FEF9506A5069F
S11319705FE0B50618F381E026960FB6F894DEBF53
S11319800FBECDBFDF91CF911F910F91FF90EF90CC
S1131990DF90CF90BF90AF909F908F907F906F908B
S11319A05F904F903F902F900895CF93DF93CDB7E2
S11319B0DEB764970FB6F894DEBF0FBECDBFBC018F
S11319C0CE010196E2D7CE010196B8D88330E1F476
S11319D080911809813039F46DE179E0CE010196E6
S11319E0CBD7892B81F08091560B813039F46BE58C
S11319F07BE0CE010196C0D7892B29F0CE01019658
S1131A00D2DE81E001C086E064960FB6F894DEBFB2
S1131A100FBECDBFDF91CF910895982F9770E82F17
S1131A20E695E695E6954E2F50E04730510508F0CF
S1131A30C4C0FA01EA5BFF4F77C74AB3662359F083
S1131A4021E030E0B90102C0660F771F9A95E2F7F2
S1131A50CB01842B0BC021E030E0B90102C0660F3A
S1131A60771F9A95E2F7CB01809584238ABB08956A
S1131A7047B3662359F021E030E0B90102C0660F94
S1131A80771F9A95E2F7CB01842B0BC021E030E05D
S1131A90B90102C0660F771F9A95E2F7CB018095D2
S1131AA0842387BB089544B3662359F021E030E0D2
S1131AB0B90102C0660F771F9A95E2F7CB01842B18
S1131AC00BC021E030E0B90102C0660F771F9A9580
S1131AD0E2F7CB018095842384BB089541B3662348
S1131AE059F021E030E0B90102C0660F771F9A95E2
S1131AF0E2F7CB01842B0BC021E030E0B90102C036
S1131B00660F771F9A95E2F7CB018095842381BBFA
S1131B10089542B1662359F021E030E0B90102C0D2
S1131B20660F771F9A95E2F7CB01842B0BC021E057
S1131B3030E0B90102C0660F771F9A95E2F7CB0136
S1131B408095842382B9089540916100662359F0F9
S1131B5021E030E0B90102C0660F771F9A95E2F7E1
S1131B60CB01842B0BC021E030E0B90102C0660F29
S1131B70771F9A95E2F7CB018095842380936100C7
S1131B80089540916400662359F021E030E0B901E2
S1131B9002C0660F771F9A95E2F7CB01842B0BC026
S1131BA021E030E0B90102C0660F771F9A95E2F791
S1131BB0CB0180958423809364000895982F9770B7
S1131BC0E82FE695E695E6954E2F50E0473051050F
S1131BD008F0C4C0FA01E35BFF4FA6C64BB366230B
S1131BE059F021E030E0B90102C0660F771F9A95E1
S1131BF0E2F7CB01842B0BC021E030E0B90102C035
S1131C00660F771F9A95E2F7CB01809584238BBBEF
S1131C10089548B3662359F021E030E0B90102C0C9
S1131C20660F771F9A95E2F7CB01842B0BC021E056
S1131C3030E0B90102C0660F771F9A95E2F7CB0135
S1131C408095842388BB089545B3662359F021E029
S1131C5030E0B90102C0660F771F9A95E2F7CB0115
S1131C60842B0BC021E030E0B90102C0660F771F5E
S1131C709A95E2F7CB018095842385BB089542B3FE
S1131C80662359F021E030E0B90102C0660F771FE6
S1131C909A95E2F7CB01842B0BC021E030E0B90127
S1131CA002C0660F771F9A95E2F7CB0180958423D3
S1131CB082BB089543B1662359F021E030E0B901B5
S1131CC002C0660F771F9A95E2F7CB01842B0BC0F5
S1131CD021E030E0B90102C0660F771F9A95E2F760
S1131CE0CB018095842383B90895409162006623D3
S1131CF059F021E030E0B90102C0660F771F9A95D0
S1131D00E2F7CB01842B0BC021E030E0B90102C023
S1131D10660F771F9A95E2F7CB0180958423809311
S1131D206200089540916500662359F021E030E097
S1131D30B90102C0660F771F9A95E2F7CB01842B95
S1131D400BC021E030E0B90102C0660F771F9A95FD
S1131D50E2F7CB0180958423809365000895CF92A8
S1131D60DF92EF92FF92CF93DF93C82F6A017B013A
S1131D708091D404811113C08FEE8C0F823040F017
S1131D8088EE8C0F823020F080EE8C0F823038F495
S1131D9089E0CC0CDD1CEE1CFF1C8A95D1F760E0B9
S1131DA088E00CDF8C2F806448D18F2D46D18E2D96
S1131DB044D18D2D42D18C2D40D1C83011F487E807
S1131DC001C085E93AD1F12C3FD1D82F8F3F21F4BE
S1131DD0FA94F110F9CF10C081110EC0CA3361F426
S1131DE033D186FF04C081E08093D40402C01092F2
S1131DF0D4042AD129D128D127D161E088E0DEDEBC
S1131E008D2FDF91CF91FF90EF90DF90CF900895C9
S1131E100F931F93CF93DF938C0181E1A0DF811196
S1131E201DC060E088E0CADEC0E0D0E00DD18E3F86
S1131E3039F02197D9F761E088E0C0DE81E00EC077
S1131E40E8011E5F01D18993C017D107D9F7FCD0EF
S1131E50FBD0FAD061E088E0B1DE80E0DF91CF9181
S1131E601F910F9108950F931F93CF93DF938C01CC
S1131E7088E175DF81113BC060E088E09FDE8EEF72
S1131E80DCD0E8011E5F8991D8D0C017D107D9F7FB
S1131E908FEFD3D08FEFD1D0D7D0C82F8F718530AB
S1131EA029F061E088E08ADE8C2F21C0C0E0D0E018
S1131EB0CBD0811107C02196D9F761E088E07EDE9E
S1131EC081E015C061E088E079DE8FEFB6D060E094
S1131ED088E074DEB9D0811106C0CE010196219646
S1131EE061F3EC01F7CF61E088E068DE80E0DF9128
S1131EF0CF911F910F910895EF92FF920F931F932B
S1131F00CF93DF938C01CAE08FEF97D0C150E1F7F4
S1131F1060E088E053DE31E2E32EF12C40E050E053
S1131F20BA0180E01CDF91E0E91AF10809F452C01B
S1131F308130A1F761E088E041DE8FEF7ED08FEF42
S1131F407CD0EE24EA94F12C4AEA51E060E070E09F
S1131F5088E005DFE1E0EE1AF10829F481E0F801F8
S1131F608083D1E003C0813079F7D2E0EE24EA9493
S1131F70F12C40E050E0BA0187E3F1DE40E050E0AC
S1131F8060E070E489E2EBDEF1E0EF1AF10821F1A0
S1131F908111EFCF1092D404D230F9F4EE24EA94F4
S1131FA0F12C40E050E0BA018AE3D9DEC82F81E089
S1131FB0E81AF10819F4F801108202C0C111F1CF36
S1131FC08091D404813011F482E001C081E0F801F1
S1131FD0808303C0C1E001C0C2E08C2FDF91CF91A8
S1131FE01F910F91FF90EF9008950F931F93CF933C
S1131FF08C0110D0CAE0C8017FDF882331F0C150C2
S1132000D1F7CF911F910F910895CF911F910F9107
S11320100C94340461E089E000DD61E08AE0FDDCD9
S113202060E08BE0FADC61E088E0F7DC61E088E006
S1132030C5DD83E58DB91EB808958FB9779BFECFB2
S11320409FB19093680B08958FEF8FB9779BFECF64
S11320508FB10895CF92DF92EF92FF92CF93C82F62
S1132060DB01CA0180569940A109B109813A984B14
S1132070A140B10588F4A8EFBFEF9A01AB0178D471
S11320807C5D8B409F4FE4E0220F331F441F551F9C
S1132090EA95D1F727D402C027E630E0C11104C085
S11320A029B93093900006C0C13021F420939900DF
S11320B030939800CF91FF90EF90DF90CF900895E8
S11320C0811108C088E18AB986E0809395001BB825
S11320D080E00BC0813051F488E180939A0086E05F
S11320E080939D0010929B0081E0B4CF08958823D3
S11320F019F0813029F00BC05F9BFECF8CB108959D
S113210080919B0087FFFCCF80919C00089580E024
S11321100895811104C05D9BFECF6CB90895813090
S113212031F480919B0085FFFCCF60939C0008955F
S11321308F929F92AF92BF92EF92FF920F931F9351
S1132140CF93DF93E82E4A015B01F22EC1E0D0E089
S1132150FF20D9F08FEF8F0D8E0102C0000F111FE9
S11321608A95E2F7012E000C220B330B082119216A
S11321702A213B2161E0012B022B032B09F460E0AF
S1132180605D8E2DC6DFFA94E3CFDF91CF911F916E
S11321900F91FF90EF90BF90AF909F908F90089514
S11321A01F93CF93DF93182FEB016991662319F0E6
S11321B0812FAFDFFACFDF91CF911F910895FF9266
S11321C00F931F93CF93DF93F82E8B01C0E08F2DD5
S11321D08EDFD82F682F8F2D9CDFDD3011F0DA30A1
S11321E069F4CC23A1F3F801EC0FF11D10828C2FBC
S11321F0DF91CF911F910F91FF900895D83021F472
S1132200CC2311F0C150E3CFF801EC0FF11DD083C2
S1132210CF5FDDCF4F925F926F927F92AF92BF926A
S1132220CF92DF92EF92FF920F931F93CF93DF939E
S1132230CDB7DEB72A970FB6F894DEBF0FBECDBF79
S1132240B82EA62EBA01A90182E0A81217C0202F29
S11322508B2D2A960FB6F894DEBF0FBECDBFDF914B
S1132260CF911F910F91FF90EF90DF90CF90BF908F
S1132270AF907F906F905F904F905ACF411551056A
S11322806105710549F0FE0131966F017F014A2C09
S1132290512C612C712C2CC060E38B2D2A960FB627
S11322A0F894DEBF0FBECDBFDF91CF911F910F9188
S11322B0FF90EF90DF90CF90BF90AF907F906F90A2
S11322C05F904F9026CF4115510561057105A9F026
S11322D0142FCB01BA01A301920104D3BA01A901BD
S11322E0A49E10191124F7011083FFEFEF1AFF0ABF
S11322F01E2D1C19101738F30FC00B3068F4F701AA
S11323001082F3CFFE01E10FF11D60816A3038F0D5
S1132310695C8B2DFEDE11501111F4CF02C0605D9B
S1132320F8CF2A960FB6F894DEBF0FBECDBFDF916B
S1132330CF911F910F91FF90EF90DF90CF90BF90BE
S1132340AF907F906F905F904F900895AF92BF923F
S1132350CF92DF92EF92FF920F931F93CF93DF936D
S113236000D000D0CDB7DEB71989AA88BB887E011A
S113237084E1E80EF11CF5016081662309F41AC1B9
S1132380653209F0FFC065019FEFC91AD90AF5014A
S1132390918180ED890F8A3008F0AFC000E080EDB4
S11323A0890F8A3058F4FAE00F9F800D1124082F0A
S11323B08FEFC81AD80AF6019081F1CF983509F445
S11323C0A0C0A0F4933429F138F4953209F4D6C0AE
S11323D0923409F4B4C0D9C0933509F4C2C0953518
S11323E009F472C0943409F0D0C037C09436E9F0CF
S11323F020F4923609F496C0D9C0953709F451C037
S1132400983709F470C0ABC0993560F4933409F07F
S113241052C05701F2E0AF0EB11CF7016081812F69
S113242078DEA8C09436B9F50FEF5701F2E0AF0E8D
S1132430B11CF701E080F180F7FE06C0F194E1944D
S1132440F1086DE2812F65DE9701FF0C440B550BFB
S113245044C0943409F099C00FEF5701F4E0AF0E73
S1132460B11CF701208131814281538157FF35C06E
S113247050954095309521953F4F4F4F5F4F6DE2FA
S1132480812F29833A834B835C8343DE5C814B81B8
S11324903A81298122C0953608F440C09537F9F471
S11324A00FEF5701F2E0AF0EB11CF701208131812B
S11324B040E050E012C0943408F45EC0933509F44F
S11324C050C0953531F60FEF5701F4E0AF0EB11C53
S11324D0F70120813181428153816AE01CC0983721
S11324E009F03DC00FEF5701F2E0AF0EB11CF70148
S11324F02081318140E050E00DC0983509F084CF4F
S11325000FEF5701F4E0AF0EB11CF70120813181C8
S11325104281538160E1812F7DDE2CC0923609F027
S113252045C00FEF5701F2E0AF0EB11CF701408137
S113253051810F3F09F400E160E070E00CC05701E5
S1132540F4E0AF0EB11CF7014081518162817381C7
S11325500F3F09F400E1202F812FEADD0BC09337F0
S1132560A1F45701F2E0AF0EB11CF7016081718153
S1132570812F16DE750109C0953261F465E2812F61
S1132580C8DD03C0812FC5DD65015601FFEFAF1A19
S1132590BF0AF1CE9234C9F75701F4E0AF0EB11C73
S11325A0F7014081518162817381D4CF933609F45C
S11325B030CFEBCF0F900F900F900F90DF91CF9112
S11325C01F910F91FF90EF90DF90CF90BF90AF904D
S11325D00895CF93DF93CDB7DEB7E2970FB6F894A3
S11325E0DEBF0FBECDBF40E052EC61E070E080E0A2
S11325F067DDCE01C196F9DC8AAB8823A9F081306E
S113260029F464E071E080E0CBDD0DC0823029F470
S11326106EE171E080E0C4DD06C0833021F46EE336
S113262071E080E0BDDDFFCF68E571E080E0B8DDFA
S11326308DE9E82E84E0F82E6E0185E0C80ED11CE9
S113264097E6A92E94E0B92E6CE671E080E0A8DD4F
S113265080E04DDD6AE871E080E0A2DD6CEA71E0C3
S113266080E09EDD6CEB71E080E09ADD6DEC71E062
S113267080E096DD6DED71E080E092DD6FEE71E05B
S113268080E08EDD63E072E080E08ADD68E172E084
S113269080E086DD67E372E080E082DD80E027DDB4
S11326A0182F8FEC810F8630C8F7612F80E031DD61
S11326B065E572E080E074DD143309F4A8C030F4F9
S11326C0123371F1133309F45DC006C0153309F4F4
S11326D0B9C0163309F4D2C06AE572E080E060DD67
S11326E0BE01635E7F4F80E06ADDAE014E5C5F4FEA
S11326F060E0CE014D960E9442078C01892B19F4AB
S11327006FE872E09CC065EA72E080E049DDC801D0
S11327100E9435018A3151F1682F80E0FADCF7CF4D
S11327206AE572E080E03CDDBE01635E7F4F80E0DD
S113273046DDAE014E5C5F4F62E0CE014D960E94D5
S113274042078C01892BE1F264EB72E080E028DD22
S113275080E0CDDC982E9EE389130CC06AE1C801A9
S11327600E94800963ED72E080E01ADDC8010E94D6
S113277074006ACF682F80E0CCDC692DC8010E9408
S11327808009E6CF6BEF72E080E00ADDBE01635E94
S11327907F4F80E014DDAE014E5C5F4F60E0CE0100
S11327A04D960E9442078C01892B19F467E373E06C
S11327B046C064E573E080E0F3DCBE016F5E7F4FEA
S11327C080E0FDDCAE014E5C5F4F62E0CE014196DD
S11327D00E9442074C01892B19F465E973E0C4CFC8
S11327E067EB73E080E0DCDCC8010E943501782EE1
S11327F0682FC4010E9480098AE17812F5CF6BEC3E
S113280073E080E0CDDCC4010E947400AFCF6CEDB6
S113281073E080E0C5DCBE01635E7F4F80E0CFDC07
S11328206FE174E080E0BCDCCE014D96BED88AAB8B
S1132830863019F461E374E002C062E574E080E07C
S1132840AFDC02CFCE0101960E94B6018AAB89307B
S113285009F4FACE8C818F938B818F938A818F9325
S113286089818F93DF92CF92BF92AF921F926EDDD8
S11328700FB6F894DEBF0FBECDBFE4CF66E774E0B9
S113288080E08EDCBE01675D7F4FCE018D960E9495
S11328903A038CA58F938BA58F938AA58F9389A5D3
S11328A08F9388A98F938FA58F938EA58F938DA5D2
S11328B08F93FF92EF921F9249DD0FB6F894DEBF1B
S11328C00FBECDBFC1CEDB018F939F9345D0BF9187
S11328D0AF91A29F800D911DA39F900DB29F900D6B
S11328E011240895A1E21A2EAA1BBB1BFD010DC0E1
S11328F0AA1FBB1FEE1FFF1FA217B307E407F507AC
S113290020F0A21BB30BE40BF50B661F771F881F87
S1132910991F1A9469F760957095809590959B011D
S1132920AC01BD01CF010895EE0FFF1F0024001C70
S11329300BBE0790F691E02D0994A29FB001B39FBE
S1132940C001A39F700D811D1124911DB29F700DB4
S1132950811D1124911D0895F0DFA59F900DB49F52
S1132960900DA49F800D911D11240895B7FFF4CFFD
S1132970F3DF821B930B0895FB01DC018D91019021
S113298080190110D9F3990B0895FB01DC01019022
S10F29900D920020E1F70895F894FFCFA9
S113299CFFFFFFFF0A0D2053442063617264206E15
S11329AC6F742064657465637465642E2E000A0D5F
S11329BC204361726420496E697469616C697A613F
S11329CC74696F6E206661696C65642E2E000A0D45
S11329DC20496E76616C6964204661742066696C6A
S11329EC6573797374656D000A0D534420436172E9
S11329FC6420446574656374656421000A0D0A0DD2
S1132A0C507265737320616E79206B657920746FD5
S1132A1C20636F6E74696E7565000A0D0A0D2D2D99
S1132A2C2D2D2D2D46696C65206F7074696F6E7336
S1132A3C2D2D2D2D2D2D2D2D2D0A0D00313A2052FD
S1132A4C6561642046696C65200A0D00323A205792
S1132A5C726974652046696C65200A0D00333A204E
S1132A6C46696C6520436F7079200A0D00343A2056
S1132A7C44656C6574652046696C65200A0D0035E7
S1132A8C3A204765742046696C65204C6973742040
S1132A9C0A0D00363A204D656D6F727920537461BE
S1132AAC74696373200A0D002D2D2D2D2D2D2D2DC4
S1132ABC2D2D2D2D2D2D2D2D2D2D2D2D2D2D2D2D36
S1132ACC2D2D2D200A0D0043686F6F7365206F6EDA
S1132ADC65206F6620746865206F7074696F6E73FF
S1132AEC3A200A0D000A0D0A0D000A0D456E746594
S1132AFC722046696C65206E616D65206D6178206D
S1132B0C313120636861727320696E636C7564691A
S1132B1C6E672066696C6520747970653A20000ACA
S1132B2C0D46696C65204F70656E696E6720466151
S1132B3C696C65640046696C6520436F6E74656EE0
S1132B4C743A20000A0D456E7465722074657874AD
S1132B5C20656E64696E67207769746820273E2748
S1132B6C203A000A0D446174612073617665642017
S1132B7C746F2066696C652C20636C6F73696E6767
S1132B8C207468652066696C652E000A0D456E74A8
S1132B9C657220736F757263652046696C65206E6F
S1132BAC616D65206D6178203131206368617273C9
S1132BBC20696E636C7564696E672066696C652048
S1132BCC747970653A20000A0D536F757263652031
S1132BDC46696C65204F70656E696E672046616945
S1132BEC6C6564000A0D456E7465722064657374BB
S1132BFC696E6174696F6E2046696C65206E616DD7
S1132C0C65206D61782031312063686172732069AD
S1132C1C6E636C7564696E672066696C6520747983
S1132C2C70653A20000A0D44657374696E617469A9
S1132C3C6F6E2046696C65204F70656E696E6720F7
S1132C4C4661696C6564000A0D436F7079696E673F
S1132C5C207468652066696C652E000A0D446F6EDD
S1132C6C6520436F7079696E672E2E000A0D456ED0
S1132C7C7465722046696C65206E616D6520746F95
S1132C8C2062652064656C65746564206D617820D0
S1132C9C313120636861727320696E636C75646989
S1132CAC6E672066696C6520747970653A20000A39
S1132CBC0D44656C6574696E672046696C653A20D1
S1132CCC000A0D46696C65206973206F70656E206F
S1132CDC63616E6E6F742062652064656C657465E7
S1132CEC64000A0D446F6E65212046696C652044AE
S1132CFC656C65746564000A0D25732020202555C8
S1132D0C6279746573000A0D4D656D6F7279205389
S1132D1C746174696373206973206265696E6720DA
S1132D2C63616C63756C617465642E2E000A0D54BA
S1132D3C6F74616C206D656D6F72793A255562798B
S1132D4C746573202046726565206D656D6F7279AC
S10D2D5C3A2555627974657300008E
S9030000FC
