:020000021000EC
:10F000000C9446F80C9466F80C9466F80C9466F828
:10F010000C9466F80C9466F80C9466F80C9466F8F8
:10F020000C9466F80C9466F80C9466F80C9466F8E8
:10F030000C9466F80C9466F80C9466F80C9466F8D8
:10F040000C9466F80C9466F80C9466F80C9466F8C8
:10F050000C9466F80C9466F80C9466F80C9466F8B8
:10F060000C9466F80C9466F80C9466F80C9466F8A8
:10F070000C9466F80C9466F80C9466F80C9466F898
:10F080000C9466F80C9466F80C9466F811241FBE74
:10F09000CFEFD0E1DEBFCDBF11E0A0E0B1E0ECE307
:10F0A000F9EF01E00BBF02C007900D92A230B1074B
:10F0B000D9F71BBE12E0A2E0B1E001C01D92AD3055
:10F0C000B107E1F70E9474F90C949CFC0C9400F8D1
:10F0D00090910501913019F0923029F008955D9BCF
:10F0E000FECF8CB9089590919B0095FFFCCF809343
:10F0F0009C000895CF93982F959595959595959506
:10F10000905DC82FCF70CA304CF4C05D892F0E942B
:10F1100068F88C2F0E9468F8CF910895C95A892FFA
:10F120000E9468F88C2F0E9468F8CF910895CF92C2
:10F13000DF92EF92FF9280910501813069F1823078
:10F1400031F080E0FF90EF90DF90CF900895CC24D5
:10F15000DD24760180919B0087FD17C00894C11CB7
:10F16000D11CE11CF11C81E4C81682E4D8068FE0B2
:10F17000E80680E0F80670F3E0910201F0910301E7
:10F18000099580919B0087FFE9CF80919C00FF90BB
:10F19000EF90DF90CF900895CC24DD2476015F9925
:10F1A00015C00894C11CD11CE11CF11C81E4C816D7
:10F1B00082E4D8068FE0E80680E0F80680F3E0916C
:10F1C0000201F091030109955F9BEBCF8CB1FF9099
:10F1D000EF90DF90CF900895CF930E9497F8C82FBB
:10F1E0000E9468F8C13634F4C0330CF0C0538C2F41
:10F1F000CF910895C7558C2FCF910895CF930E943A
:10F20000ECF8C82F0E94ECF8C295C07F8C0FCF910C
:10F21000089520910501882339F0213031F0223002
:10F2200049F081508823C9F708955F9BFECF9CB1B8
:10F230008150F8CF90919B0097FFFCCF90919C005C
:10F240008150F0CFCF93C82F0E9497F8803281F081
:10F25000809104018F5F80930401853011F0CF917C
:10F260000895E0910201F09103010995CF9108956D
:10F2700084E10E9468F88C2F0E9468F880E10E9467
:10F2800068F8EDCF0E9497F8803271F08091040108
:10F290008F5F80930401853009F00895E0910201A9
:10F2A000F09103010995089584E10E9468F880E1D6
:10F2B0000E9468F8089515C0C79A2FEF31EE44E018
:10F2C000215030404040E1F700C00000C7982FEFC8
:10F2D00031EE44E0215030404040E1F700C00000F2
:10F2E0008150882349F70895CF93DF9300D000D051
:10F2F000CDB7DEB70000809161008F778093610009
:10F30000809161008F7B80936100809162008068B2
:10F31000809362008091620080648093620081E04B
:10F320008093050180E189B9109290001BB886E0B6
:10F330008093950088E18AB9BF9A81E0882339F1EA
:10F34000C79A2FEF31EE44E0215030404040E1F7C2
:10F3500000C00000C7982FEF31EE44E0215030404C
:10F360004040E1F700C000008150E8CF0E9497F8CC
:10F37000803809F48CC1813809F48DC1823809F4D0
:10F38000ACC1883909F472C180E00E9422F90E9460
:10F3900097F88033B9F18133C1F1803409F455C055
:10F3A000813421F3823409F459C0853409F45CC0F6
:10F3B000803541F1823531F1813521F1853509F40E
:10F3C00059C0863509F461C0843609F46AC08437AF
:10F3D00009F4D6C0853709F434C18637A9F28132E1
:10F3E00009F45DC1809104018F5F80930401853031
:10F3F00071F6E0910201F091030109950E9497F8DE
:10F40000803349F60E9442F9C2CF0E9497F88032B9
:10F4100049F784E10E9468F881E40E9468F886E573
:10F420000E9468F882E50E9468F880E20E9468F80D
:10F4300089E40E9468F883E50E9468F880E50E94EC
:10F4400068F880E10E9468F8A2CF0E9497F8863899
:10F45000C8F20E9497F80E9442F999CF84E10E9475
:10F4600009F90E9442F993CF85E00E9409F90E94B0
:10F4700042F98DCF0E9497F8809306010E9497F879
:10F48000809307010E9442F982CF0E9497F880334F
:10F4900009F4F0C083E00E9409F980E00E9422F99B
:10F4A00076CF0E9497F8809309020E9497F8809384
:10F4B000080280910C028E7F80930C020E9497F8C4
:10F4C000853429F480910C02816080930C02809134
:10F4D0000802909109020097A1F068E0E62E61E031
:10F4E000F62E00E010E00E9497F8D7018D937D0181
:10F4F0000F5F1F4F809108029091090208171907AA
:10F5000090F30E9497F8803209F06CCF80910C0242
:10F5100080FFF6C02091060130910701220F331FB2
:10F52000309307012093060180910802909109020F
:10F530000097F9F048E0E42E41E0F42E00E010E0FE
:10F54000F70161917F01C9010E948FFC20910601A2
:10F55000309107012F5F3F4F309307012093060141
:10F560000F5F1F4F80910802909109020817190739
:10F5700038F384E10E9468F880E10E9468F807CFC0
:10F580000E9497F8809309020E9497F880930802DE
:10F59000809106019091070120910C0297FD28C1EE
:10F5A0002D7F20930C02880F991F90930701809361
:10F5B00006010E9497F8853409F414C180910C0269
:10F5C0008E7F80930C020E9497F8803209F0DFCE84
:10F5D00084E10E9468F880910802909109020097E6
:10F5E00009F440C000E010E0E0910601F09107014D
:10F5F00015C084910E9468F8E0910601F09107011E
:10F600003196F0930701E09306010F5F1F4F809141
:10F610000802909109020817190720F580910C0241
:10F6200080FD5FC081FFE5CFCF01A0E0B0E080505A
:10F630009040AF4FBF4FABBFFC0187910E9468F86D
:10F64000DBCF0E9497F8803209F0CCCE84E10E9493
:10F6500068F88EE10E9468F887E90E9468F882E005
:10F660000E9468F880E10E9468F891CE83E00E94D1
:10F6700022F98DCE0E9497F80E9497F8082F0E94D9
:10F6800097F8002309F4B8C0013009F4B9C082E04A
:10F690000E9422F97CCE81E00E9422F978CE0E945D
:10F6A00097F8813209F073CE0E9497F8813209F001
:10F6B0006ECEBF9AC79810920A02E0E0F0E0E050E8
:10F6C000FF4F8081882309F4AAC00E9468F8E09166
:10F6D0000A02EF5FE0930A02F1CF80E10E9422F973
:10F6E00056CECF010E9487FC0E9468F8E091060187
:10F6F000F09107013196F0930701E093060185CF61
:10F700008091070187FD80C010920B0280E08BBFC3
:10F710008091060190910701880F991F909307012E
:10F72000809306018091080280FF09C08091080241
:10F730009091090201969093090280930802F8942F
:10F74000E199FECF1127E0910601F0910701C8E091
:10F75000D1E08091080290910902103091F400915B
:10F76000680001700130D9F303E000936800E89568
:10F770000091680001700130D9F301E10093680045
:10F78000E895099019900091680001700130D9F353
:10F7900001E000936800E8951395103898F0112760
:10F7A0000091680001700130D9F305E00093680012
:10F7B000E8950091680001700130D9F301E10093F0
:10F7C0006800E8953296029709F0C7CF103011F023
:10F7D0000296E5CF112484E10E9468F880E10E943E
:10F7E00068F8D5CD80910C02816080930C02EBCE3D
:10F7F000226020930C02D7CE8EE10E9422F9C7CD61
:10F8000087E90E9422F9C3CDF1E0F0930B0281E079
:10F810007ECFB79977C0C79A80E30E9468F88AE0E4
:10F820000E9468F88DE00E9468F88AE30E9468F8F8
:10F8300080E20E9468F80E9497F8082F0E9468F8FA
:10F84000043739F3023781F10737B1F0053759F042
:10F85000023609F440C00A3611F7E0910201F09136
:10F8600003010995DCCF0E9497F80E9468F80E9476
:10F8700097F80E9468F8F7CF0E9497F80E9468F8FE
:10F880000E94FEF8E82E0E94FEF8082F0E9497F8CA
:10F890000E9468F80E94FEF8EC821B82EB81FC81DA
:10F8A000E00FF11D8083BBCF0E9497F80E9468F89B
:10F8B0000E94FEF8E82E0E94FEF8082F8DE30E94B9
:10F8C00068F8EA821982E981FA81E00FF11D8081EE
:10F8D0000E947AF8A4CF82E60E9468F885E70E9429
:10F8E00068F883E70E9468F880E885BF10926D0091
:10F8F00010926C00E0E0F1E181913097E9F7E0E0EF
:10F90000F1E1FACFC79881E30E9468F888CFE199C6
:10F91000FECF9FBB8EBBE09A99278DB30895262F0B
:10F92000E199FECF9FBB8EBB2DBB0FB6F894E29A38
:0CF93000E19A0FBE01960895F894FFCFF5
:02F93C00008049
:040000031000F000F9
:00000001FF
