S02B0000496E746572666163696E672052544320776974682041746D65676131323820427265616B6F75742EF0
S11300005AC0000076C0000074C0000072C0000036
S113001070C000006EC000006CC000006AC0000028
S113002068C0000066C0000064C0000062C0000038
S113003060C000005EC000005CC000005AC0000048
S113004058C0000056C0000054C0000052C0000058
S113005050C000004EC000004CC000004AC0000068
S113006048C0000046C0000044C0000042C0000078
S113007040C000003EC000003CC000003AC0000088
S113008038C0000036C0000034C000009F00BA0031
S1130090D500F0000B012601430170018B01A6017C
S11300A0C101DC01F701140240024202440246028B
S11300B048024A024C0211241FBECFEFD0E1DEBF3A
S11300C0CDBF11E0A0E0B1E0E0E9F1E100E00BBF59
S11300D002C007900D92A832B107D9F721E0A8E237
S11300E0B1E001C01D92A833B207E1F74FD60C94DA
S11300F0C60886CF009731F025E02A95F1F7000075
S11301000197F8CF0895009741F0EFE9FFE03197A8
S1130110F1F700C000000197F6CF0895982F97706B
S1130120E82FE695E695E6954E2F50E047305105C9
S113013008F0C5C0FA01EA5BFF4F0C94BD084AB34E
S1130140662359F021E030E0B90102C0660F771F41
S11301509A95E2F7CB01842B0BC021E030E0B90182
S113016002C0660F771F9A95E2F7CB01809584232E
S11301708ABB089547B3662359F021E030E0B90102
S113018002C0660F771F9A95E2F7CB01842B0BC050
S113019021E030E0B90102C0660F771F9A95E2F7BB
S11301A0CB018095842387BB089544B3662359F01B
S11301B021E030E0B90102C0660F771F9A95E2F79B
S11301C0CB01842B0BC021E030E0B90102C0660FE3
S11301D0771F9A95E2F7CB018095842384BB089519
S11301E041B3662359F021E030E0B90102C0660F43
S11301F0771F9A95E2F7CB01842B0BC021E030E006
S1130200B90102C0660F771F9A95E2F7CB0180957A
S1130210842381BB089542B1662359F021E030E084
S1130220B90102C0660F771F9A95E2F7CB01842BC0
S11302300BC021E030E0B90102C0660F771F9A9528
S1130240E2F7CB018095842382B90895409161003F
S1130250662359F021E030E0B90102C0660F771F30
S11302609A95E2F7CB01842B0BC021E030E0B90171
S113027002C0660F771F9A95E2F7CB01809584231D
S113028080936100089540916400662359F021E051
S113029030E0B90102C0660F771F9A95E2F7CB01EF
S11302A0842B0BC021E030E0B90102C0660F771F38
S11302B09A95E2F7CB018095842380936400089596
S11302C0982F9770E82FE695E695E6954E2F50E027
S11302D04730510508F0C4C0FA01E35BFF4F4DC736
S11302E04BB3662359F021E030E0B90102C0660F38
S11302F0771F9A95E2F7CB01842B0BC021E030E005
S1130300B90102C0660F771F9A95E2F7CB01809579
S113031084238BBB089548B3662359F021E030E071
S1130320B90102C0660F771F9A95E2F7CB01842BBF
S11303300BC021E030E0B90102C0660F771F9A9527
S1130340E2F7CB018095842388BB089545B36623E7
S113035059F021E030E0B90102C0660F771F9A9589
S1130360E2F7CB01842B0BC021E030E0B90102C0DD
S1130370660F771F9A95E2F7CB018095842385BB9E
S1130380089542B3662359F021E030E0B90102C078
S1130390660F771F9A95E2F7CB01842B0BC021E0FF
S11303A030E0B90102C0660F771F9A95E2F7CB01DE
S11303B08095842382BB089543B1662359F021E0DC
S11303C030E0B90102C0660F771F9A95E2F7CB01BE
S11303D0842B0BC021E030E0B90102C0660F771F07
S11303E09A95E2F7CB018095842383B908954091CF
S11303F06200662359F021E030E0B90102C0660FC3
S1130400771F9A95E2F7CB01842B0BC021E030E0F3
S1130410B90102C0660F771F9A95E2F7CB01809568
S1130420842380936200089540916500662359F007
S113043021E030E0B90102C0660F771F9A95E2F718
S1130440CB01842B0BC021E030E0B90102C0660F60
S1130450771F9A95E2F7CB018095842380936500FA
S11304600895282F2770E82FE695E695E6958E2FB8
S113047090E087309105D0F4FC01EC5AFF4F7DC623
S113048089B30CC086B30AC083B308C080B306C066
S113049081B104C080B102C08091630090E002C0C9
S11304A0959587952A95E2F78170089580E00895DF
S11304B01092710086E48093700084E0809374004D
S11304C0089584EA809374008091740087FFFCCFC0
S11304D0089584E98093740084E690E00BCE8093C1
S11304E0730084E8809374008091740087FFFCCFCC
S11304F0089520E4829FC0011124846880937400CD
S11305008091740087FFFCCF8091730008950F934E
S11305101F93CF93C82F84FB662760F908E211E08C
S1130520F8018285CDDEC5FB662760F9F801838575
S1130530C7DEC6FB662760F9F8018485C1DE6C2F2F
S1130540661F6627661FF8018585CF911F910F915D
S1130550B7CECF93DF93C8E2D1E060E08B81B0DE09
S113056060E08C81ADDE61E08D81AADE8AE090E0FE
S1130570C1DD60E08D81DF91CF91A2CE0F931F93F7
S1130580CF93C82F682F617008E211E0F8018681CB
S113059097DEC1FB662760F9F801878191DEC2FB13
S11305A0662760F9F80180858BDEC3FB662760F956
S11305B0F8018185CF911F910F9182CECF93DF9364
S11305C0C8E2D1E061E08B817BDE60E08C8178DE83
S11305D061E08D8175DE8AE090E08CDD60E08D81E4
S11305E0DF91CF916DCECF9380912C018F3F09F491
S11305F037C060E08091350191DD60E080912B018E
S11306005FDE61E080912C015BDE60E080912D0172
S113061057DE8AE090E06EDD61E080912D0150DECE
S11306208AE090E067DD809135011BDFC82F80915F
S11306302A01843071F460E080912D0141DE8AE06A
S113064090E058DD61E080912D013ADE8AE090E08F
S113065051DDC111DACF61E080913501CF915ECDDA
S113066081E090E0CF914FCD8F929F92AF92BF9255
S1130670CF92DF92EF92FF920F931F93CF93DF936A
S1130680CDB7DEB7982EB62ED42EFF84188980936A
S11306902B0160932C0140932D0120932E01009394
S11306A02F01E0923001C0923101A0923201809278
S11306B03301F0923401109335012F3F39F00F3F8D
S11306C029F08FEFE81611F0C81204C084E080937B
S11306D02A010FC088E080932A0161E0822F1EDD89
S11306E061E0802F1BDD61E08E2D18DD61E08C2D33
S11306F015DD61E0892D12DD61E08B2D0FDD61E0F8
S11307008D2D0CDD61E08A2D09DD61E0882D06DD8B
S113071061E08F2D03DD61E0812FDF91CF911F9187
S11307200F91FF90EF90DF90CF90BF90AF909F908C
S11307308F90F4CCCF93C82F56DF80912A01883054
S113074019F48C2F1BDF05C08C2FE1DE02DFC2956C
S1130750C07F8C2FDCDECF91FCCE909128018917CD
S113076050F41092360180933701E82FF0E0E05006
S1130770FF4F8081DFCF089581E0DCDF80E0EDCFA3
S11307806093290180932801833040F06F7080E9E1
S1130790860F8093020160536093030184E690E026
S11307A0B2DC80912A01883011F488E31BC08430C4
S11307B0D1F480E3ACDECDDE84E690E0A4DC80E31B
S11307C0A6DEC7DE88EC90E095DC80E3A0DEC1DE27
S11307D088EC90E08FDC80E29ADEBBDE88EC90E06F
S11307E089DC88E2A7DF8EE0A5DFC6CF80913701E0
S11307F08F5F8093370110923601909128018917F9
S113080010F010923701E0913701F0E0E050FF4F13
S1130810808190CFCF93C82F909136018091290188
S1130820981750F4CA3041F0DEDE80912A018830F6
S113083039F48C2FA3DE09C0D9DFCA3071F0F4CFAC
S11308408C2F65DEBBDEC295C07F8C2F60DEB6DEEA
S1130850809136018F5F80933601CF910895AF92D6
S1130860BF92CF92DF92EF92FF920F931F93CF9399
S1130870DF931F92CDB7DEB76B017C01AA24A3944A
S1130880B12C4423E1F08FEF840F850102C0000FE7
S1130890111F8A95E2F7012E000C220B330B0C2159
S11308A01D212E213F2181E0012B022B032B09F472
S11308B080E0805D4983AEDF49814150E2CF0F90F3
S11308C0DF91CF911F910F91FF90EF90DF90CF9028
S11308D0BF90AF900895CF93DF93EC018991882363
S11308E011F098DFFBCFDF91CF9108954F925F9283
S11308F06F927F92BF92CF92DF92EF92FF920F930B
S11309001F93CF93DF93CDB7DEB72A970FB6F89432
S1130910DEBF0FBECDBFB82ECB01BA01022F22E03D
S1130920B21215C0402F2A960FB6F894DEBF0FBE40
S1130930CDBFDF91CF911F910F91FF90EF90DF908A
S1130940CF90BF907F906F905F904F9088CF61154C
S113095071058105910549F0FE0131966F017F0112
S11309604B2C512C612C712C28C080E32A960FB695
S1130970F894DEBF0FBECDBFDF91CF911F910F91D1
S1130980FF90EF90DF90CF90BF907F906F905F903B
S11309904F9040CF611571058105910599F0162F8F
S11309A0A3019201C8D3CA01B901B29E101911243E
S11309B0F7011083FFEFEF1AFF0A1E2D1C19101701
S11309C048F30EC00B3060F4F7011082F3CFFE0140
S11309D0E10FF11D80818A3030F0895C1BDF1150FA
S11309E01111F5CF02C0805DF9CF2A960FB6F894A5
S11309F0DEBF0FBECDBFDF91CF911F910F91FF904E
S1130A00EF90DF90CF90BF907F906F905F904F906A
S1130A1008958F929F92AF92BF92CF92DF92EF92FE
S1130A20FF926B017C016AD24B015C012FEFAB0199
S1130A30BC018AE05BDF8EE2EDDEC501B4018AD23F
S1130A409B01AC01C701B601F4D120E034E244E7D4
S1130A5059E40ED353D2AB01BC012FEF8AE0FF90CF
S1130A60EF90DF90CF90BF90AF909F908F903ECF4C
S1130A70CF92DF92EF92FF920F931F93CF93DF9366
S1130A8000D000D01F92CDB7DEB7FE017096C190A2
S1130A90D1908F01F6018081882309F423C1853226
S1130AA009F007C176018FEFE81AF80AF60181818F
S1130AB090ED980F9A3008F0B4C020E090ED980FB4
S1130AC09A3058F4FAE02F9F900D1124292F8FEFBC
S1130AD0E81AF80AF7018081F1CF883509F4A5C036
S1130AE070F4843409F44EC018F48234D9F4B9C0D3
S1130AF0833509F4D4C0853509F47AC0C1C086367B
S1130B0009F4C0C040F4833681F0843619F182368A
S1130B1009F0D1C099C0853709F456C0883709F463
S1130B2076C0BBC0833408F4D8C06801F2E0CF0EAD
S1130B30D11CF80180816EDEBAC0893500F1863699
S1130B4009F4A0C008F03DC0833679F3843609F077
S1130B5078C02FEF6801F2E0CF0ED11CF8010081BC
S1130B60118117FF07C01195019511098DE22D839D
S1130B7051DE2D81A801110F660B770B42C084341E
S1130B8069F52FEF6801F4E0CF0ED11CF801408124
S1130B9051816281738177FF34C07095609550955F
S1130BA041955F4F6F4F7F4F8DE22D8349835A8369
S1130BB06B837C832FDE7C816B815A8149812D81FB
S1130BC020C0853701F52FEF6801F2E0CF0ED11C6C
S1130BD0F8014081518160E070E013C0853408F46D
S1130BE06FC0833509F45BC0853509F049C02FEF28
S1130BF06801F4E0CF0ED11CF8014081518162817B
S1130C0073818AE01CC0883709F047C02FEF680160
S1130C10F2E0CF0ED11CF8014081518160E070E018
S1130C200DC0883509F089CF2FEF6801F4E0CF0EAD
S1130C30D11CF801408151816281738180E156DECB
S1130C4036C08236C1F52FEF6801F2E0CF0ED11C19
S1130C50F801608171812F3F09F420E180E090E088
S1130C600CC06801F4E0CF0ED11CF80160817181E1
S1130C70828193812F3F09F420E1422FF0DD17C0D8
S1130C808634C9F46801F4E0CF0ED11CF801608108
S1130C90718182819381BDDE0AC0833761F468016A
S1130CA0F2E0CF0ED11CF8018081918114DE86011F
S1130CB002C0B0DD76016701FFEFCF1ADF0AEACE8A
S1130CC0823409F02FCF6801F4E0CF0ED11CF80173
S1130CD06081718182819381CFCF853261F785E212
S1130CE099DDE9CF0F900F900F900F900F90DF9147
S1130CF0CF911F910F91FF90EF90DF90CF900895C7
S1130D00D7DBDFDB80EDEBDB87E0E9DB80E0E7DBF3
S1130D10E0CBCF93DF93EC01D4DB80EDE0DB80E02C
S1130D20DEDB8881DCDB8981DADB8A81D8DB8B81BD
S1130D30D6DB8C81D4DB8D81D2DB8E81D0DBDF915D
S1130D40CF91C7CBCF93DF93EC01BBDB80EDC7DB47
S1130D5080E0C5DBBEDBB5DB81EDC1DB81E0C9DB57
S1130D60888381E0C6DB898381E0C3DB8A8381E0F9
S1130D70C0DB8B8381E0BDDB8C8381E0BADB8D83B8
S1130D8080E0B7DB8E83DF91CF91A3CBCF93DF934A
S1130D90CDB7DEB727970FB6F894DEBF0FBECDBF31
S1130DA08FE08F938EE08F938DE0882E9CE0A92EA8
S1130DB0CC24CA94EE24EA940FEF2FEF4AE069E0C2
S1130DC088E052DC60E182E0DBDC9ADF80E18B8347
S1130DD080E48A83198281E08D838E8386E18F8308
S1130DE085E08C83CE01019694DF0F900F9004E090
S1130DF011E0CE010196A6DF80E0AFDC8F811F9267
S1130E008F938E811F928F938D811F928F938981EF
S1130E101F928F938A811F928F938B811F928F933E
S1130E201F930F9325DE0FB6F894DEBF0FBECDBF20
S1130E30E0CF5058BB27AA270ED0E0C0D1D030F065
S1130E40D6D020F031F49F3F11F41EF4C6C00EF446
S1130E50E095E7FBBCC0E92FE2D080F3BA17620744
S1130E6073078407950718F071F49EF5FAC00EF421
S1130E70E0950B2EBA2FA02D0B01B90190010C01A6
S1130E80CA01A0011124FF27591B99F0593F50F4BE
S1130E90503E68F11A16F040A22F232F342F442716
S1130EA0585FF3CF469537952795A795F04053950E
S1130EB0C9F77EF41F16BA0B620B730B840BBAF0DE
S1130EC09150A1F0FF0FBB1F661F771F881FC2F749
S1130ED00EC0BA0F621F731F841F48F4879577955D
S1130EE06795B795F7959E3F08F0B3CF9395880F14
S1130EF008F09927EE0F97958795089598D088F074
S1130F009F5790F0B92F9927B751A0F0D1F0660FF1
S1130F10771F881F991F1AF0BA95C9F712C0B1300C
S1130F2081F09FD0B1E008959CC0672F782F882767
S1130F30B85F39F0B93FCCF3869577956795B3954B
S1130F40D9F73EF490958095709561957F4F8F4FBA
S1130F509F4F0895E89409C097FB3EF490958095BF
S1130F60709561957F4F8F4F9F4F9923A9F0F92F6B
S1130F7096E9BB279395F695879577956795B795E9
S1130F80F111F8CFFAF4BB0F11F460FF1BC06F5FCF
S1130F907F4F8F4F9F4F16C0882311F096E911C0E1
S1130FA0772321F09EE8872F762F05C0662371F002
S1130FB096E8862F70E060E02AF09A95660F771F16
S1130FC0881FDAF7880F9695879597F9089597F90A
S1130FD09F6780E870E060E008959FEF80EC0895DB
S1130FE000240A9416161706180609060895002404
S1130FF00A9412161306140605060895092E03947E
S1131000000C11F4882352F0BB0F40F4BF2B11F4F1
S113101060FF04C06F5F7F4F8F4F9F4F089557FD50
S11310209058440F551F59F05F3F71F04795880F52
S113103097FB991F61F09F3F79F0879508951216E9
S113104013061406551FF2CF4695F1DF08C0161695
S113105017061806991FF1CF869571056105089446
S11310600895E894BB2766277727CB0197F908955D
S11310700BD0C4CFB5DF28F0BADF18F0952309F000
S1131080A6CFABCF1124EECFCADFA0F3959FD1F347
S1131090950F50E0551F629FF001729FBB27F00D22
S11310A0B11D639FAA27F00DB11DAA1F649F662777
S11310B0B00DA11D661F829F2227B00DA11D621FC6
S11310C0739FB00DA11D621F839FA00D611D221F80
S11310D0749F3327A00D611D231F849F600D211D64
S11310E0822F762F6A2F11249F5750408AF0E1F007
S11310F088234AF0EE0FFF1FBB1F661F771F881F50
S113110091505040A9F79E3F510570F060CFAACF8F
S11311105F3FECF3983EDCF3869577956795B7953A
S1131120F795E7959F5FC1F7FE2B880F911D969564
S1131130879597F90895A1E21A2EAA1BBB1BFD01FE
S11311400DC0AA1FBB1FEE1FFF1FA217B307E407A2
S1131150F50720F0A21BB30BE40BF50B661F771FFA
S1131160881F991F1A9469F76095709580959095DA
S11311709B01AC01BD01CF010895EE0FFF1F0024B8
S1131180001C0BBE0790F691E02D0994F894FFCF54
S113119080C090D074696D653A2532783A253278EA
S11311A03A25327820200A446174653A2532782F32
S10B11B02532782F2532780066
S9030000FC
