:100000000C9446000C9465000C9465000C946500FB
:100010000C9465000C9465000C9465000C946500CC
:100020000C9465000C9465000C9465000C946500BC
:100030000C9465000C9465000C9465000C946500AC
:100040000C9465000C9465000C9465000C9465009C
:100050000C9465000C9465000C9465000C9465008C
:100060000C9465000C9465000C9465000C9465007C
:100070000C9465000C9465000C9465000C9465006C
:100080000C9465000C9465000C94650011241FBE4F
:10009000CFEFD0E1DEBFCDBF11E0A0E0B1E0EEE6F2
:1000A000F1E000E00BBF02C007900D92A030B10755
:1000B000D9F711E0A0E0B1E001C01D92A030B10776
:1000C000E1F70E9496000C94B5000C940000FC012E
:1000D00088EC51E042E034E028E055BB908198BBC9
:1000E000AFE9BFE01197F1F700C0000045BB918177
:1000F00098BBAFE9BFE01197F1F700C0000035BB36
:10010000928198BBAFE9BFE01197F1F700C0000002
:1001100025BB938198BBAFE9BFE01197F1F700C011
:1001200000008150D1F615BA18BA0895CF93DF9325
:1001300000D000D0CDB7DEB789E8898386E88A830E
:1001400087EC8B838CE88C838FEF87BB84BBCE01DD
:1001500001960E9467008FEF93EDA0E381509040DD
:0E016000A040E1F700C00000F2CFF894FFCFFE
:00000001FF
